{"abi":[{"type":"constructor","inputs":[{"name":"initialOwner","type":"address","internalType":"address"},{"name":"_baseTokenURI","type":"string","internalType":"string"}],"stateMutability":"nonpayable"},{"type":"function","name":"aiAgent","inputs":[],"outputs":[{"name":"","type":"address","internalType":"address"}],"stateMutability":"view"},{"type":"function","name":"auditNFT","inputs":[],"outputs":[{"name":"","type":"address","internalType":"contract AuditNFT"}],"stateMutability":"view"},{"type":"function","name":"baseTokenURI","inputs":[],"outputs":[{"name":"","type":"string","internalType":"string"}],"stateMutability":"view"},{"type":"function","name":"contractBytecode","inputs":[{"name":"","type":"address","internalType":"address"}],"outputs":[{"name":"","type":"bytes","internalType":"bytes"}],"stateMutability":"view"},{"type":"function","name":"contractReportIds","inputs":[{"name":"","type":"address","internalType":"address"}],"outputs":[{"name":"","type":"uint256","internalType":"uint256"}],"stateMutability":"view"},{"type":"function","name":"getContractCertificates","inputs":[{"name":"contractAddress","type":"address","internalType":"address"}],"outputs":[{"name":"","type":"uint256[]","internalType":"uint256[]"}],"stateMutability":"view"},{"type":"function","name":"getMonitoringStatus","inputs":[{"name":"contractAddress","type":"address","internalType":"address"}],"outputs":[{"name":"isActive","type":"bool","internalType":"bool"},{"name":"lastScanTimestamp","type":"uint256","internalType":"uint256"},{"name":"scanCount","type":"uint256","internalType":"uint256"},{"name":"nextScanTimestamp","type":"uint256","internalType":"uint256"}],"stateMutability":"view"},{"type":"function","name":"getSystemStats","inputs":[],"outputs":[{"name":"totalContracts","type":"uint256","internalType":"uint256"},{"name":"totalScans","type":"uint256","internalType":"uint256"},{"name":"activeContracts","type":"uint256","internalType":"uint256"}],"stateMutability":"view"},{"type":"function","name":"getVulnerabilitySummary","inputs":[{"name":"contractAddress","type":"address","internalType":"address"}],"outputs":[{"name":"critical","type":"uint8","internalType":"uint8"},{"name":"high","type":"uint8","internalType":"uint8"},{"name":"medium","type":"uint8","internalType":"uint8"},{"name":"low","type":"uint8","internalType":"uint8"}],"stateMutability":"view"},{"type":"function","name":"monitoringConfigs","inputs":[{"name":"","type":"address","internalType":"address"}],"outputs":[{"name":"isActive","type":"bool","internalType":"bool"},{"name":"scanInterval","type":"uint256","internalType":"uint256"},{"name":"lastScanTimestamp","type":"uint256","internalType":"uint256"},{"name":"scanCount","type":"uint256","internalType":"uint256"}],"stateMutability":"view"},{"type":"function","name":"owner","inputs":[],"outputs":[{"name":"","type":"address","internalType":"address"}],"stateMutability":"view"},{"type":"function","name":"registerContract","inputs":[{"name":"contractAddress","type":"address","internalType":"address"},{"name":"scanInterval","type":"uint256","internalType":"uint256"}],"outputs":[],"stateMutability":"nonpayable"},{"type":"function","name":"renounceOwnership","inputs":[],"outputs":[],"stateMutability":"nonpayable"},{"type":"function","name":"scanContract","inputs":[{"name":"contractAddress","type":"address","internalType":"address"}],"outputs":[{"name":"reportId","type":"uint256","internalType":"uint256"},{"name":"certificateId","type":"uint256","internalType":"uint256"}],"stateMutability":"nonpayable"},{"type":"function","name":"securityRegistry","inputs":[],"outputs":[{"name":"","type":"address","internalType":"contract SecurityRegistry"}],"stateMutability":"view"},{"type":"function","name":"setAIAgent","inputs":[{"name":"_aiAgent","type":"address","internalType":"address"}],"outputs":[],"stateMutability":"nonpayable"},{"type":"function","name":"setBaseTokenURI","inputs":[{"name":"_baseTokenURI","type":"string","internalType":"string"}],"outputs":[],"stateMutability":"nonpayable"},{"type":"function","name":"totalContractsMonitored","inputs":[],"outputs":[{"name":"","type":"uint256","internalType":"uint256"}],"stateMutability":"view"},{"type":"function","name":"totalScansPerformed","inputs":[],"outputs":[{"name":"","type":"uint256","internalType":"uint256"}],"stateMutability":"view"},{"type":"function","name":"transferOwnership","inputs":[{"name":"newOwner","type":"address","internalType":"address"}],"outputs":[],"stateMutability":"nonpayable"},{"type":"function","name":"updateMonitoringConfig","inputs":[{"name":"contractAddress","type":"address","internalType":"address"},{"name":"isActive","type":"bool","internalType":"bool"},{"name":"scanInterval","type":"uint256","internalType":"uint256"}],"outputs":[],"stateMutability":"nonpayable"},{"type":"event","name":"ContractRegistered","inputs":[{"name":"contractAddress","type":"address","indexed":true,"internalType":"address"},{"name":"owner","type":"address","indexed":true,"internalType":"address"}],"anonymous":false},{"type":"event","name":"MonitoringConfigUpdated","inputs":[{"name":"contractAddress","type":"address","indexed":true,"internalType":"address"},{"name":"isActive","type":"bool","indexed":false,"internalType":"bool"},{"name":"scanInterval","type":"uint256","indexed":false,"internalType":"uint256"}],"anonymous":false},{"type":"event","name":"OwnershipTransferred","inputs":[{"name":"previousOwner","type":"address","indexed":true,"internalType":"address"},{"name":"newOwner","type":"address","indexed":true,"internalType":"address"}],"anonymous":false},{"type":"event","name":"SecurityScanCompleted","inputs":[{"name":"contractAddress","type":"address","indexed":true,"internalType":"address"},{"name":"reportId","type":"uint256","indexed":true,"internalType":"uint256"},{"name":"certificateId","type":"uint256","indexed":true,"internalType":"uint256"},{"name":"criticalCount","type":"uint8","indexed":false,"internalType":"uint8"}],"anonymous":false},{"type":"error","name":"InvalidAddress","inputs":[]},{"type":"error","name":"InvalidInterval","inputs":[]},{"type":"error","name":"NotAuthorized","inputs":[]},{"type":"error","name":"NotRegistered","inputs":[]},{"type":"error","name":"OwnableInvalidOwner","inputs":[{"name":"owner","type":"address","internalType":"address"}]},{"type":"error","name":"OwnableUnauthorizedAccount","inputs":[{"name":"account","type":"address","internalType":"address"}]},{"type":"error","name":"ReentrancyGuardReentrantCall","inputs":[]},{"type":"error","name":"ScanInProgress","inputs":[]}],"bytecode":{"object":"0x608060405234801561000f575f5ffd5b5060405161632638038061632683398101604081905261002e916101db565b816001600160a01b03811661005c57604051631e4fbdf760e01b81525f600482015260240160405180910390fd5b6100658161015e565b5060017f9b779b17422d0df92223018b32b4d1fa46e071723d6817e2486d003becc55f0055600880546001600160a01b0319163317905560096100a8828261032e565b50816040516100b6906101ad565b6001600160a01b039091168152602001604051809103905ff0801580156100df573d5f5f3e3d5ffd5b50600180546001600160a01b0319166001600160a01b039290921691821790556040518391908390610110906101ba565b61011c939291906103e8565b604051809103905ff080158015610135573d5f5f3e3d5ffd5b50600280546001600160a01b0319166001600160a01b03929092169190911790555061043b9050565b5f80546001600160a01b038381166001600160a01b0319831681178455604051919092169283917f8be0079c531659141344cd1fd0a4f28419497f9722a3daafe3b4186f6b6457e09190a35050565b6114928061289283390190565b61260280613d2483390190565b634e487b7160e01b5f52604160045260245ffd5b5f5f604083850312156101ec575f5ffd5b82516001600160a01b0381168114610202575f5ffd5b60208401519092506001600160401b0381111561021d575f5ffd5b8301601f8101851361022d575f5ffd5b80516001600160401b03811115610246576102466101c7565b604051601f8201601f19908116603f011681016001600160401b0381118282101715610274576102746101c7565b60405281815282820160200187101561028b575f5ffd5b8160208401602083015e5f602083830101528093505050509250929050565b600181811c908216806102be57607f821691505b6020821081036102dc57634e487b7160e01b5f52602260045260245ffd5b50919050565b601f82111561032957805f5260205f20601f840160051c810160208510156103075750805b601f840160051c820191505b81811015610326575f8155600101610313565b50505b505050565b81516001600160401b03811115610347576103476101c7565b61035b8161035584546102aa565b846102e2565b6020601f82116001811461038d575f83156103765750848201515b5f19600385901b1c1916600184901b178455610326565b5f84815260208120601f198516915b828110156103bc578785015182556020948501946001909201910161039c565b50848210156103d957868401515f19600387901b60f8161c191681555b50505050600190811b01905550565b60018060a01b038416815260018060a01b0383166020820152606060408201525f82518060608401528060208501608085015e5f608082850101526080601f19601f830116840101915050949350505050565b61244a806104485f395ff3fe608060405234801561000f575f5ffd5b5060043610610132575f3560e01c8063715018a6116100b4578063d1ce59a711610079578063d1ce59a714610308578063d547cfb71461032a578063e40aca6a1461033f578063f2fde38b14610352578063f31464c614610365578063f68df3a71461036e575f5ffd5b8063715018a6146102ad5780638da5cb5b146102b557806392c0ac5f146102d95780639b21f9ae146102e2578063a6d5b732146102f5575f5ffd5b806330176e13116100fa57806330176e13146101d85780633c915647146101eb5780633f603adb1461022b5780636cd83bfa146102605780636ebe941b1461029a575f5ffd5b80631362e96014610136578063152f0eb51461014b57806316d23bf81461015e5780632b06cf5d1461018b5780632c01e67a146101ab575b5f5ffd5b610149610144366004611cc4565b610381565b005b610149610159366004611d02565b6104c4565b61017161016c366004611d2c565b6106ef565b604080519283526020830191909152015b60405180910390f35b61019e610199366004611d2c565b610a06565b6040516101829190611d47565b6101ca6101b9366004611d2c565b60056020525f908152604090205481565b604051908152602001610182565b6101496101e6366004611dce565b610a7b565b6101fe6101f9366004611d2c565b610af0565b6040805160ff95861681529385166020850152918416918301919091529091166060820152608001610182565b61023e610239366004611d2c565b610b71565b6040805194151585526020850193909352918301526060820152608001610182565b61023e61026e366004611d2c565b600360208190525f9182526040909120805460018201546002830154929093015460ff90911692919084565b6101496102a8366004611d2c565b610be3565b610149610c34565b5f546001600160a01b03165b6040516001600160a01b039091168152602001610182565b6101ca60065481565b6001546102c1906001600160a01b031681565b6008546102c1906001600160a01b031681565b6006546007548160408051938452602084019290925290820152606001610182565b610332610c47565b6040516101829190611e90565b61033261034d366004611d2c565b610cd3565b610149610360366004611d2c565b610ceb565b6101ca60075481565b6002546102c1906001600160a01b031681565b6001546040516363e5060f60e11b81526001600160a01b0385811660048301525f92169063c7ca0c1e9060240160a060405180830381865afa1580156103c9573d5f5f3e3d5ffd5b505050506040513d601f19601f820116820180604052508101906103ed9190611ea2565b509193505050336001600160a01b038316148015915061041757505f546001600160a01b03163314155b156104355760405163ea8e4eb560e01b815260040160405180910390fd5b603c821015610457576040516305fabb6160e41b815260040160405180910390fd5b6001600160a01b0384165f81815260036020908152604091829020805460ff19168715159081178255600190910186905582519081529081018590527ff70094adafe693073ef4ad9e7bade4f87561af2eeb5a207a693b3647391918b8910160405180910390a250505050565b6104cc610d2d565b6001600160a01b0382166104f35760405163e6c4247b60e01b815260040160405180910390fd5b603c811015610515576040516305fabb6160e41b815260040160405180910390fd5b6001600160a01b0382165f9081526003602052604090205460ff161561054e5760405163aba4733960e01b815260040160405180910390fd5b816001600160a01b0316803b806020016040519081016040528181525f908060200190933c6001600160a01b0383165f908152600460205260409020906105959082611f80565b5060408051608081018252600180825260208083018581525f848601818152606086018281526001600160a01b038a8116808552600396879052938990209751885460ff191690151517885593518787015590516002870155519490920193909355905492516308a9777960e21b815260048101919091529116906322a5dde4906024015f604051808303815f87803b158015610630575f5ffd5b505af1158015610642573d5f5f3e3d5ffd5b505060068054925090505f6106568361204f565b909155505060405133906001600160a01b038416907f768fb430a0d4b201cb764ab221c316dd14d8babf2e4b2348e05964c6565318b6905f90a36040805160018152602081018390526001600160a01b038416917ff70094adafe693073ef4ad9e7bade4f87561af2eeb5a207a693b3647391918b8910160405180910390a26106eb60015f5160206123bb5f395f51905f5255565b5050565b5f5f6106f9610d2d565b6001600160a01b0383165f9081526003602052604090205460ff166107315760405163aba4733960e01b815260040160405180910390fd5b6001600160a01b0383165f908152600460205260408120805461075390611eff565b80601f016020809104026020016040519081016040528092919081815260200182805461077f90611eff565b80156107ca5780601f106107a1576101008083540402835291602001916107ca565b820191905f5260205f20905b8154815290600101906020018083116107ad57829003601f168201915b5050505050905080515f036107f25760405163aba4733960e01b815260040160405180910390fd5b5f6107fc82610d48565b90505f610808826110d6565b6001546040808501516060860151608087015160a088015193516303cbc12160e61b81529596506001600160a01b039094169463f2f0484094610857948d948994909390929190600401612067565b6020604051808303815f875af1158015610873573d5f5f3e3d5ffd5b505050506040513d601f19601f8201168201806040525081019061089791906120b7565b60025460408401519196506001600160a01b03169063a436c201903390899089906108e7575f8760600151116108e0575f8760800151116108d95760016108ea565b60026108ea565b60036108ea565b60045b866040518663ffffffff1660e01b815260040161090b9594939291906120ce565b6020604051808303815f875af1158015610927573d5f5f3e3d5ffd5b505050506040513d601f19601f8201168201806040525081019061094b91906120b7565b6001600160a01b0387165f9081526003602081905260408220426002820155908101805493975090929161097e8361204f565b909155505060078054905f6109928361204f565b91905055508486886001600160a01b03167fa3f6f4caf592b729aecfa993399c36fae16a07913d558ed4b5ef3ce25749b18d86604001516040516109df919060ff91909116815260200190565b60405180910390a450505050610a0160015f5160206123bb5f395f51905f5255565b915091565b600254604051632b06cf5d60e01b81526001600160a01b0383811660048301526060921690632b06cf5d906024015f60405180830381865afa158015610a4e573d5f5f3e3d5ffd5b505050506040513d5f823e601f3d908101601f19168201604052610a759190810190612142565b92915050565b610a8361115d565b6009610a8f8282611f80565b506002546040516330176e1360e01b81526001600160a01b03909116906330176e1390610ac0908490600401611e90565b5f604051808303815f87803b158015610ad7575f5ffd5b505af1158015610ae9573d5f5f3e3d5ffd5b5050505050565b600154604051633c91564760e01b81526001600160a01b0383811660048301525f928392839283921690633c91564790602401608060405180830381865afa158015610b3e573d5f5f3e3d5ffd5b505050506040513d601f19601f82011682018060405250810190610b6291906121f8565b93509350935093509193509193565b6001600160a01b0381165f9081526003602081815260408084208151608081018352815460ff1615158082526001830154948201859052600283015493820184905291909401546060850181905285948594859491939290610bd39083612249565b9450945094509450509193509193565b610beb61115d565b6001600160a01b038116610c125760405163e6c4247b60e01b815260040160405180910390fd5b600880546001600160a01b0319166001600160a01b0392909216919091179055565b610c3c61115d565b610c455f611189565b565b60098054610c5490611eff565b80601f0160208091040260200160405190810160405280929190818152602001828054610c8090611eff565b8015610ccb5780601f10610ca257610100808354040283529160200191610ccb565b820191905f5260205f20905b815481529060010190602001808311610cae57829003601f168201915b505050505081565b60046020525f908152604090208054610c5490611eff565b610cf361115d565b6001600160a01b038116610d2157604051631e4fbdf760e01b81525f60048201526024015b60405180910390fd5b610d2a81611189565b50565b610d356111d8565b60025f5160206123bb5f395f51905f5255565b610d50611c64565b4260c082015281516020830120610d6690611207565b60e08201525f610d758361131e565b90505f610d8184611509565b90505f610d8d85611858565b90505f610d9986611a27565b90508060200151826020015184602001518660200151610db99190612249565b610dc39190612249565b610dcd9190612249565b8560200181815250508060400151826040015184604001518660400151610df49190612249565b610dfe9190612249565b610e089190612249565b8560400181815250508060600151826060015184606001518660600151610e2f9190612249565b610e399190612249565b610e439190612249565b8560600181815250508060800151826080015184608001518660800151610e6a9190612249565b610e749190612249565b610e7e9190612249565b8560800181815250508060a001518260a001518460a001518660a00151610ea59190612249565b610eaf9190612249565b610eb99190612249565b60a086015260208501518067ffffffffffffffff811115610edc57610edc611d89565b604051908082528060200260200182016040528015610f4b57816020015b610f386040805160e08101909152805f81526020015f81526020015f81526020015f815260200160608152602001606081526020015f151581525090565b815260200190600190039081610efa5790505b5086525f805b865151811015610fad578651805182908110610f6f57610f6f61225c565b6020026020010151885f01518381518110610f8c57610f8c61225c565b60200260200101819052508180610fa29061204f565b925050600101610f51565b505f5b85515181101561100c578551805182908110610fce57610fce61225c565b6020026020010151885f01518381518110610feb57610feb61225c565b602002602001018190525081806110019061204f565b925050600101610fb0565b505f5b84515181101561106b57845180518290811061102d5761102d61225c565b6020026020010151885f0151838151811061104a5761104a61225c565b602002602001018190525081806110609061204f565b92505060010161100f565b505f5b8351518110156110ca57835180518290811061108c5761108c61225c565b6020026020010151885f015183815181106110a9576110a961225c565b602002602001018190525081806110bf9061204f565b92505060010161106e565b50505050505050919050565b60605f8260e0015183602001518460400151856060015186608001518760a001518860c001516040516020016111129796959493929190612270565b60408051601f198184030181529190528051602082012090915061113581611ac7565b60405160200161114591906122b3565b60405160208183030381529060405292505050919050565b5f546001600160a01b03163314610c455760405163118cdaa760e01b8152336004820152602401610d18565b5f80546001600160a01b038381166001600160a01b0319831681178455604051919092169283917f8be0079c531659141344cd1fd0a4f28419497f9722a3daafe3b4186f6b6457e09190a35050565b5f5160206123bb5f395f51905f5254600203610c4557604051633ee5aeb560e01b815260040160405180910390fd5b6040805181815260608181018352915f9182916020820181803683370190505090505f91505b6020821015611317575f8483602081106112495761124961225c565b1a9050600481901c600f8216600a60ff83161061126757605761126a565b60305b61127490836122d7565b60f81b846112838760026122f0565b815181106112935761129361225c565b60200101906001600160f81b03191690815f1a905350600a8160ff16106112bb5760576112be565b60305b6112c890826122d7565b60f81b846112d78760026122f0565b6112e2906001612249565b815181106112f2576112f261225c565b60200101906001600160f81b03191690815f1a905350506001909301925061122d9050565b9392505050565b611326611c64565b4260c08201528151602083012061133c90611207565b60e08201527fa852d34cdcd326c23776345a791126b753544e8077a5528b22fd2457af28b8687fa9059cbb2ab09eb219583f4a59a5d0623ade346d962bcd4e46b11da047c9049b7fa52c101ee63680a7478d1b781d11f7d3473c6980f1d05014a3334718aba4c2a15f5b600486516113b49190612307565b811015611500575f8682815181106113ce576113ce61225c565b01602001516001600160f81b031916876113e9846001612249565b815181106113f9576113f961225c565b01602001516001600160f81b03191688611414856002612249565b815181106114245761142461225c565b01602001516001600160f81b0319168961143f866003612249565b8151811061144f5761144f61225c565b602001015160f81c60f81b60405160200161146d949392919061231a565b60405160208183030381529060405261148590612346565b90506001600160e01b031980821690861614806114ae57506001600160e01b0319818116908516145b806114c557506001600160e01b0319818116908416145b156114f757602086018051906114da8261204f565b905250606086018051906114ed8261204f565b8152505050611500565b506001016113a6565b50505050919050565b611511611c64565b4260c08201528151602083012061152790611207565b60e082015260408051600580825260c082019092525f916020820160a0803683370190505090507f5a6535fca55a292e4eaf53f90cc8154dc6b88f8b4162ed219acab99cf76d6206815f815181106115815761158161225c565b60200260200101906001600160e01b03191690816001600160e01b031916815250507f360ef61bc98f55d73123712ea6b4a6a56fa5c031acfc58c07f89524c68aea8fc816001815181106115d7576115d761225c565b60200260200101906001600160e01b03191690816001600160e01b031916815250507fdf1eae29469e67543e503ed5fc899480918a36e5e504fc544e4c8d5256158ae48160028151811061162d5761162d61225c565b60200260200101906001600160e01b03191690816001600160e01b031916815250507fa9059cbb2ab09eb219583f4a59a5d0623ade346d962bcd4e46b11da047c9049b816003815181106116835761168361225c565b60200260200101906001600160e01b03191690816001600160e01b031916815250507fa52c101ee63680a7478d1b781d11f7d3473c6980f1d05014a3334718aba4c2a1816004815181106116d9576116d961225c565b6001600160e01b0319909216602092830291909101909101525f5b600484516117029190612307565b811015611851575f84828151811061171c5761171c61225c565b01602001516001600160f81b03191685611737846001612249565b815181106117475761174761225c565b01602001516001600160f81b03191686611762856002612249565b815181106117725761177261225c565b01602001516001600160f81b0319168761178d866003612249565b8151811061179d5761179d61225c565b602001015160f81c60f81b6040516020016117bb949392919061231a565b6040516020818303038152906040526117d390612346565b90505f5b8351811015611847578381815181106117f2576117f261225c565b60200260200101516001600160e01b031916826001600160e01b0319160361183f57602085018051906118248261204f565b905250608085018051906118378261204f565b905250611847565b6001016117d7565b50506001016116f4565b5050919050565b611860611c64565b4260c08201528151602083012061187690611207565b60e08201527fcfc72007c9757e542c54448297c0e72e85d5bb43776bed9d61d37be2d25d4c707f360ef61bc98f55d73123712ea6b4a6a56fa5c031acfc58c07f89524c68aea8fc5f5b600485516118cd9190612307565b811015611a1f575f8582815181106118e7576118e761225c565b01602001516001600160f81b03191686611902846001612249565b815181106119125761191261225c565b01602001516001600160f81b0319168761192d856002612249565b8151811061193d5761193d61225c565b01602001516001600160f81b03191688611958866003612249565b815181106119685761196861225c565b602001015160f81c60f81b604051602001611986949392919061231a565b60405160208183030381529060405261199e90612346565b90506001600160e01b0319808516908216036119db57602085018051906119c48261204f565b905250604085018051906119d78261204f565b9052505b6001600160e01b031980841690821603611a1657602085018051906119ff8261204f565b90525060608501805190611a128261204f565b9052505b506001016118bf565b505050919050565b611a2f611c64565b4260c082015281516020830120611a4590611207565b60e08201527f7818a70df2da72e8d461288a906f4bd1940737091f18247eaa870d928a85b9ce5f5b60208451611a7b9190612307565b811015611851576020848201810120828103611abe5760208401805190611aa18261204f565b90525060608401805190611ab48261204f565b8152505050611851565b50600101611a6d565b6060815f03611aed5750506040805180820190915260018152603160f81b602082015290565b5f6040518060600160405280603a81526020016123db603a9139604080516032808252606082019092529192505f91906020820181803683370190505090505f5b8415611ba7575f611b40603a87612394565b9050838181518110611b5457611b5461225c565b602001015160f81c60f81b838381518110611b7157611b7161225c565b60200101906001600160f81b03191690815f1a905350611b92603a876123a7565b955081611b9e8161204f565b92505050611b2e565b5f8167ffffffffffffffff811115611bc157611bc1611d89565b6040519080825280601f01601f191660200182016040528015611beb576020820181803683370190505b5090505f5b82811015611c5a578381611c05600186612307565b611c0f9190612307565b81518110611c1f57611c1f61225c565b602001015160f81c60f81b828281518110611c3c57611c3c61225c565b60200101906001600160f81b03191690815f1a905350600101611bf0565b5095945050505050565b604051806101000160405280606081526020015f81526020015f81526020015f81526020015f81526020015f81526020015f8152602001606081525090565b6001600160a01b0381168114610d2a575f5ffd5b8015158114610d2a575f5ffd5b5f5f5f60608486031215611cd6575f5ffd5b8335611ce181611ca3565b92506020840135611cf181611cb7565b929592945050506040919091013590565b5f5f60408385031215611d13575f5ffd5b8235611d1e81611ca3565b946020939093013593505050565b5f60208284031215611d3c575f5ffd5b813561131781611ca3565b602080825282518282018190525f918401906040840190835b81811015611d7e578351835260209384019390920191600101611d60565b509095945050505050565b634e487b7160e01b5f52604160045260245ffd5b604051601f8201601f1916810167ffffffffffffffff81118282101715611dc657611dc6611d89565b604052919050565b5f60208284031215611dde575f5ffd5b813567ffffffffffffffff811115611df4575f5ffd5b8201601f81018413611e04575f5ffd5b803567ffffffffffffffff811115611e1e57611e1e611d89565b611e31601f8201601f1916602001611d9d565b818152856020838501011115611e45575f5ffd5b816020840160208301375f91810160200191909152949350505050565b5f81518084528060208401602086015e5f602082860101526020601f19601f83011685010191505092915050565b602081525f6113176020830184611e62565b5f5f5f5f5f60a08688031215611eb6575f5ffd5b8551611ec181611ca3565b6020870151909550611ed281611ca3565b604087015160608801519195509350611eea81611cb7565b60809690960151949793965091949392915050565b600181811c90821680611f1357607f821691505b602082108103611f3157634e487b7160e01b5f52602260045260245ffd5b50919050565b601f821115611f7b57805f5260205f20601f840160051c81016020851015611f5c5750805b601f840160051c820191505b81811015610ae9575f8155600101611f68565b505050565b815167ffffffffffffffff811115611f9a57611f9a611d89565b611fae81611fa88454611eff565b84611f37565b6020601f821160018114611fe0575f8315611fc95750848201515b5f19600385901b1c1916600184901b178455610ae9565b5f84815260208120601f198516915b8281101561200f5787850151825560209485019460019092019101611fef565b508482101561202c57868401515f19600387901b60f8161c191681555b50505050600190811b01905550565b634e487b7160e01b5f52601160045260245ffd5b5f600182016120605761206061203b565b5060010190565b6001600160a01b038716815260c0602082018190525f9061208a90830188611e62565b60ff9687166040840152948616606083015250918416608083015290921660a09092019190915292915050565b5f602082840312156120c7575f5ffd5b5051919050565b6001600160a01b038681168252851660208201526040810184905260ff8316606082015260c0608082018190526015908201527421b430b4b723bab0b9321020a49029b1b0b73732b960591b60e082015261010060a082018190525f9061213790830184611e62565b979650505050505050565b5f60208284031215612152575f5ffd5b815167ffffffffffffffff811115612168575f5ffd5b8201601f81018413612178575f5ffd5b805167ffffffffffffffff81111561219257612192611d89565b8060051b6121a260208201611d9d565b918252602081840181019290810190878411156121bd575f5ffd5b6020850194505b83851015612137578451808352602095860195909350909101906121c4565b805160ff811681146121f3575f5ffd5b919050565b5f5f5f5f6080858703121561220b575f5ffd5b612214856121e3565b9350612222602086016121e3565b9250612230604086016121e3565b915061223e606086016121e3565b905092959194509250565b80820180821115610a7557610a7561203b565b634e487b7160e01b5f52603260045260245ffd5b60e081525f61228260e083018a611e62565b60208301989098525060408101959095526060850193909352608084019190915260a083015260c090910152919050565b61516d60f01b81525f82518060208501600285015e5f920160020191825250919050565b60ff8181168382160190811115610a7557610a7561203b565b8082028115828204841417610a7557610a7561203b565b81810381811115610a7557610a7561203b565b6001600160f81b0319948516815292841660018401529083166002830152909116600382015260040190565b805160208201516001600160e01b0319811691906004821015611851576001600160e01b031960049290920360031b82901b161692915050565b634e487b7160e01b5f52601260045260245ffd5b5f826123a2576123a2612380565b500690565b5f826123b5576123b5612380565b50049056fe9b779b17422d0df92223018b32b4d1fa46e071723d6817e2486d003becc55f0031323334353637383941424344454647484a4b4c4d4e505152535455565758595a6162636465666768696a6b6d6e6f707172737475767778797aa2646970667358221220ac04e733654924c848460e6ad4230969cdbe3fe5cedf1b79008807d5b578cef864736f6c634300081e0033608060405234801561000f575f5ffd5b5060405161149238038061149283398101604081905261002e9161011e565b806001600160a01b03811661005c57604051631e4fbdf760e01b81525f600482015260240160405180910390fd5b610065816100cf565b5060017f9b779b17422d0df92223018b32b4d1fa46e071723d6817e2486d003becc55f0055600580546001600160a01b031916339081179091556040515f907fee7760cb405d3beb1072ae2e716857daa45a5dd52bc1383a21173199d32c7dee908290a35061014b565b5f80546001600160a01b038381166001600160a01b0319831681178455604051919092169283917f8be0079c531659141344cd1fd0a4f28419497f9722a3daafe3b4186f6b6457e09190a35050565b5f6020828403121561012e575f5ffd5b81516001600160a01b0381168114610144575f5ffd5b9392505050565b61133a806101585f395ff3fe608060405234801561000f575f5ffd5b506004361061011c575f3560e01c80639f99da41116100a9578063c7ca0c1e1161006e578063c7ca0c1e146102c9578063d97b9bd51461034d578063eb65470714610360578063f2f0484014610373578063f2fde38b14610386575f5ffd5b80639f99da4114610259578063aae782491461027a578063abea7c95146102a7578063adb99c8a146102ad578063b9bc38f2146102c0575f5ffd5b80633e71e478116100ef5780633e71e478146101c95780635b14f183146101f0578063715018a61461022e578063895ce185146102365780638da5cb5b14610249575f5ffd5b806322a5dde414610120578063279bb52f14610135578063386136901461015e5780633c91564714610189575b5f5ffd5b61013361012e366004610ef1565b610399565b005b610148610143366004610ef1565b6104d8565b6040516101559190610f11565b60405180910390f35b600554610171906001600160a01b031681565b6040516001600160a01b039091168152602001610155565b61019c610197366004610ef1565b610541565b6040805160ff95861681529385166020850152918416918301919091529091166060820152608001610155565b6101dc6101d7366004610f53565b61077c565b604051610155989796959493929190610f6a565b61021e6101fe366004610ef1565b6001600160a01b03165f9081526001602052604090206003015460ff1690565b6040519015158152602001610155565b61013361085b565b610133610244366004610ef1565b61086e565b5f546001600160a01b0316610171565b61026c610267366004610ff7565b6108ee565b604051908152602001610155565b61021e610288366004610ef1565b6001600160a01b039081165f9081526001602052604090205416151590565b5f61026c565b6101336102bb366004610ef1565b610919565b61026c60045481565b6103186102d7366004610ef1565b600160208190525f9182526040909120805491810154600282015460038301546004909301546001600160a01b039485169490921692909160ff9091169085565b604080516001600160a01b0396871681529590941660208601529284019190915215156060830152608082015260a001610155565b61013361035b366004610ef1565b6109d5565b61013361036e366004610f53565b610a5d565b61026c610381366004611043565b610b16565b610133610394366004610ef1565b610dd2565b6103a1610e11565b6001600160a01b0381166103c85760405163e6c4247b60e01b815260040160405180910390fd5b6001600160a01b038181165f90815260016020526040902054161561040057604051630ea075bf60e21b815260040160405180910390fd5b6040805160a0810182526001600160a01b03808416808352336020808501828152428688019081525f60608801818152608089018281528783526001958690528a832099518a54908a166001600160a01b0319918216178b559451958a018054969099169590941694909417909655516002870155905160038601805491151560ff199092169190911790555160049094019390935592519192917f768fb430a0d4b201cb764ab221c316dd14d8babf2e4b2348e05964c6565318b69190a36104d560015f5160206112e55f395f51905f5255565b50565b6001600160a01b0381165f9081526003602090815260409182902080548351818402810184019094528084526060939283018282801561053557602002820191905f5260205f20905b815481526020019060010190808311610521575b50505050509050919050565b5f5f5f5f5f60035f876001600160a01b03166001600160a01b031681526020019081526020015f208054806020026020016040519081016040528092919081815260200182805480156105b157602002820191905f5260205f20905b81548152602001906001019080831161059d575b505f99508998508897508796509394508593505050505b8151811015610773575f60025f8484815181106105e7576105e7611146565b602002602001015181526020019081526020015f20604051806101000160405290815f82015f9054906101000a90046001600160a01b03166001600160a01b03166001600160a01b031681526020016001820180546106459061115a565b80601f01602080910402602001604051908101604052809291908181526020018280546106719061115a565b80156106bc5780601f10610693576101008083540402835291602001916106bc565b820191905f5260205f20905b81548152906001019060200180831161069f57829003601f168201915b5050509183525050600282015460ff808216602084015261010082048116604084015262010000820481166060840152630100000090910481166080830152600383015460a0830152600490920154909116151560c09091015260e081015190915061076a57604081015161073190886111a6565b965080606001518661074391906111a6565b955080608001518561075591906111a6565b94508060a001518461076791906111a6565b93505b506001016105c8565b50509193509193565b60026020525f9081526040902080546001820180546001600160a01b0390921692916107a79061115a565b80601f01602080910402602001604051908101604052809291908181526020018280546107d39061115a565b801561081e5780601f106107f55761010080835404028352916020019161081e565b820191905f5260205f20905b81548152906001019060200180831161080157829003601f168201915b50505060028401546003850154600490950154939460ff808316956101008404821695506201000084048216945063010000009093048116921688565b610863610e2c565b61086c5f610e58565b565b610876610e2c565b6001600160a01b03811661089d5760405163e6c4247b60e01b815260040160405180910390fd5b600580546001600160a01b038381166001600160a01b0319831681179093556040519116919082907fee7760cb405d3beb1072ae2e716857daa45a5dd52bc1383a21173199d32c7dee905f90a35050565b6003602052815f5260405f208181548110610907575f80fd5b905f5260205f20015f91509150505481565b6001600160a01b038181165f908152600160208190526040909120015416331480159061095157506005546001600160a01b03163314155b801561096757505f546001600160a01b03163314155b15610984576040516282b42960e81b815260040160405180910390fd5b6001600160a01b0381165f818152600160208190526040808320600301805460ff1916909217909155517f81990fd9a5c552b8e3677917d8a03c07678f0d2cb68f88b634aca2022e9bd19f9190a250565b6001600160a01b038181165f9081526001602081905260409091200154163314610a125760405163bfcafd3760e01b815260040160405180910390fd5b6001600160a01b0381165f81815260016020526040808220600301805460ff19169055517f5b65b0c1363b3003db9bcc5e1fd8805a6d6bf5bf6dc9d3431ee4494cd7d117669190a250565b801580610a6b575060045481115b15610a8957604051630828ea1360e11b815260040160405180910390fd5b5f818152600260209081526040808320546001600160a01b03908116845260019283905292200154163314610ad15760405163bfcafd3760e01b815260040160405180910390fd5b5f81815260026020526040808220600401805460ff191660011790555182917fc04eccda8469afb534970e4a89187f6902fa3c1ee34cd2cb40d0a85c0ae130d891a250565b6005545f906001600160a01b03163314610b42576040516282b42960e81b815260040160405180910390fd5b610b4a610e11565b6001600160a01b038781165f9081526001602052604090205416610b815760405163aba4733960e01b815260040160405180910390fd5b60048054905f610b90836111c5565b909155505060408051610100810182526001600160a01b03898116825260208083018a815260ff8a81168587015289811660608601528881166080860152871660a08501524260c08501525f60e0850181905260045481526002909252939020825181546001600160a01b031916921691909117815591519091906001820190610c1a9082611229565b506040828101516002830180546060860151608087015160a088015160ff95861661ffff1990941693909317610100928616929092029190911763ffff00001916620100009185169190910263ff00000019161763010000009184169190910217905560c084015160038085019190915560e0909401516004938401805460ff19169115159190911790556001600160a01b038b165f8181526020958652838120855481546001818101845592845288842001559181529452922042910155851615610d2f576001600160a01b0387165f818152600160208190526040808320600301805460ff1916909217909155517f81990fd9a5c552b8e3677917d8a03c07678f0d2cb68f88b634aca2022e9bd19f9190a25b5f5f8660ff1611610d63575f8560ff1611610d5c575f8460ff1611610d55576001610d66565b6002610d66565b6003610d66565b60045b60045460405160ff831681529192506001600160a01b038a16917f628ee2db9d505673f5d42b5e19f9b7e3f77dbd49bc24a5b9286674d45027af709060200160405180910390a35050600454610dc860015f5160206112e55f395f51905f5255565b9695505050505050565b610dda610e2c565b6001600160a01b038116610e0857604051631e4fbdf760e01b81525f60048201526024015b60405180910390fd5b6104d581610e58565b610e19610ea7565b60025f5160206112e55f395f51905f5255565b5f546001600160a01b0316331461086c5760405163118cdaa760e01b8152336004820152602401610dff565b5f80546001600160a01b038381166001600160a01b0319831681178455604051919092169283917f8be0079c531659141344cd1fd0a4f28419497f9722a3daafe3b4186f6b6457e09190a35050565b5f5160206112e55f395f51905f525460020361086c57604051633ee5aeb560e01b815260040160405180910390fd5b80356001600160a01b0381168114610eec575f5ffd5b919050565b5f60208284031215610f01575f5ffd5b610f0a82610ed6565b9392505050565b602080825282518282018190525f918401906040840190835b81811015610f48578351835260209384019390920191600101610f2a565b509095945050505050565b5f60208284031215610f63575f5ffd5b5035919050565b60018060a01b038916815261010060208201525f8851806101008401528060208b0161012085015e5f6101208285010152610120601f19601f83011684010191505060ff88166040830152610fc4606083018860ff169052565b60ff8616608083015260ff851660a08301528360c0830152610fea60e083018415159052565b9998505050505050505050565b5f5f60408385031215611008575f5ffd5b61101183610ed6565b946020939093013593505050565b634e487b7160e01b5f52604160045260245ffd5b803560ff81168114610eec575f5ffd5b5f5f5f5f5f5f60c08789031215611058575f5ffd5b61106187610ed6565b9550602087013567ffffffffffffffff81111561107c575f5ffd5b8701601f8101891361108c575f5ffd5b803567ffffffffffffffff8111156110a6576110a661101f565b604051601f8201601f19908116603f0116810167ffffffffffffffff811182821017156110d5576110d561101f565b6040528181528282016020018b10156110ec575f5ffd5b816020840160208301375f6020838301015280975050505061111060408801611033565b935061111e60608801611033565b925061112c60808801611033565b915061113a60a08801611033565b90509295509295509295565b634e487b7160e01b5f52603260045260245ffd5b600181811c9082168061116e57607f821691505b60208210810361118c57634e487b7160e01b5f52602260045260245ffd5b50919050565b634e487b7160e01b5f52601160045260245ffd5b60ff81811683821601908111156111bf576111bf611192565b92915050565b5f600182016111d6576111d6611192565b5060010190565b601f82111561122457805f5260205f20601f840160051c810160208510156112025750805b601f840160051c820191505b81811015611221575f815560010161120e565b50505b505050565b815167ffffffffffffffff8111156112435761124361101f565b61125781611251845461115a565b846111dd565b6020601f821160018114611289575f83156112725750848201515b5f19600385901b1c1916600184901b178455611221565b5f84815260208120601f198516915b828110156112b85787850151825560209485019460019092019101611298565b50848210156112d557868401515f19600387901b60f8161c191681555b50505050600190811b0190555056fe9b779b17422d0df92223018b32b4d1fa46e071723d6817e2486d003becc55f00a264697066735822122073c9dc8fc9fa159736b71bc196347518c3308a3ea4eb8fe9321e45029216cce964736f6c634300081e0033608060405234801561000f575f5ffd5b5060405161260238038061260283398101604081905261002e916101e1565b826040518060400160405280601c81526020017f436861696e47756172642041756469742043657274696669636174650000000081525060405180604001604052806005815260200164105551125560da1b815250815f90816100919190610336565b50600161009e8282610336565b5050506001600160a01b0381166100ce57604051631e4fbdf760e01b81525f600482015260240160405180910390fd5b6100d781610161565b5060017f9b779b17422d0df92223018b32b4d1fa46e071723d6817e2486d003becc55f00556001600160a01b0382166101235760405163e6c4247b60e01b815260040160405180910390fd5b600c80546001600160a01b0384166001600160a01b031991821617909155600d805490911633179055600e6101588282610336565b505050506103f0565b600780546001600160a01b038381166001600160a01b0319831681179093556040519116919082907f8be0079c531659141344cd1fd0a4f28419497f9722a3daafe3b4186f6b6457e0905f90a35050565b80516001600160a01b03811681146101c8575f5ffd5b919050565b634e487b7160e01b5f52604160045260245ffd5b5f5f5f606084860312156101f3575f5ffd5b6101fc846101b2565b925061020a602085016101b2565b60408501519092506001600160401b03811115610225575f5ffd5b8401601f81018613610235575f5ffd5b80516001600160401b0381111561024e5761024e6101cd565b604051601f8201601f19908116603f011681016001600160401b038111828210171561027c5761027c6101cd565b604052818152828201602001881015610293575f5ffd5b8160208401602083015e5f602083830101528093505050509250925092565b600181811c908216806102c657607f821691505b6020821081036102e457634e487b7160e01b5f52602260045260245ffd5b50919050565b601f82111561033157805f5260205f20601f840160051c8101602085101561030f5750805b601f840160051c820191505b8181101561032e575f815560010161031b565b50505b505050565b81516001600160401b0381111561034f5761034f6101cd565b6103638161035d84546102b2565b846102ea565b6020601f821160018114610395575f831561037e5750848201515b5f19600385901b1c1916600184901b17845561032e565b5f84815260208120601f198516915b828110156103c457878501518255602094850194600190920191016103a4565b50848210156103e157868401515f19600387901b60f8161c191681555b50505050600190811b01905550565b612205806103fd5f395ff3fe608060405234801561000f575f5ffd5b50600436106101e7575f3560e01c8063663b3e2211610109578063a436c2011161009e578063c4cdfe1e1161006e578063c4cdfe1e1461043a578063c87b56dd1461045c578063e985e9c51461046f578063f2fde38b14610482575f5ffd5b8063a436c201146103ee578063ab06818314610401578063b1466d1d14610414578063b88d4fde14610427575f5ffd5b806395d89b41116100d957806395d89b41146103ad5780639b21f9ae146103b5578063a1794359146103c8578063a22cb465146103db575f5ffd5b8063663b3e221461036e57806370a0823114610381578063715018a6146103945780638da5cb5b1461039c575f5ffd5b80632b06cf5d1161017f57806351640fee1161014f57806351640fee1461031057806353c8388e146103355780636352211e1461034857806364fae8a91461035b575f5ffd5b80632b06cf5d146102b457806330176e13146102d457806340be1f81146102e757806342842e0e146102fd575f5ffd5b8063095ea7b3116101ba578063095ea7b3146102685780630a828e571461027b578063128ebb4a1461028e57806323b872dd146102a1575f5ffd5b806301ffc9a7146101eb5780630229bffe1461021357806306fdde0314610228578063081812fc1461023d575b5f5ffd5b6101fe6101f9366004611b1d565b610495565b60405190151581526020015b60405180910390f35b610226610221366004611b53565b6104a5565b005b6102306104f6565b60405161020a9190611b9a565b61025061024b366004611bac565b610585565b6040516001600160a01b03909116815260200161020a565b610226610276366004611bc3565b6105ac565b600d54610250906001600160a01b031681565b61023061029c366004611bfb565b6105bb565b6102266102af366004611c14565b61066a565b6102c76102c2366004611b53565b6106f8565b60405161020a9190611c4e565b6102266102e2366004611d2e565b61080a565b6102ef61081e565b60405190815260200161020a565b61022661030b366004611c14565b610868565b61032361031e366004611bac565b610887565b60405161020a96959493929190611d60565b610226610343366004611daa565b6109bb565b610250610356366004611bac565b610a7d565b610226610369366004611b53565b610a87565b61032361037c366004611bac565b610ad8565b6102ef61038f366004611b53565b610ba6565b610226610beb565b6007546001600160a01b0316610250565b610230610bfe565b600c54610250906001600160a01b031681565b6102306103d6366004611bfb565b610c0d565b6102266103e9366004611dee565b610cb5565b6102ef6103fc366004611e27565b610cc0565b6102ef61040f366004611bc3565b610ed9565b610226610422366004611daa565b610f04565b610226610435366004611ec4565b610fc3565b6101fe610448366004611bac565b600b6020525f908152604090205460ff1681565b61023061046a366004611bac565b610fdb565b6101fe61047d366004611f3b565b610fe6565b610226610490366004611b53565b611013565b5f61049f82611050565b92915050565b6104ad611074565b6001600160a01b0381166104d45760405163e6c4247b60e01b815260040160405180910390fd5b600d80546001600160a01b0319166001600160a01b0392909216919091179055565b60605f805461050490611f6c565b80601f016020809104026020016040519081016040528092919081815260200182805461053090611f6c565b801561057b5780601f106105525761010080835404028352916020019161057b565b820191905f5260205f20905b81548152906001019060200180831161055e57829003601f168201915b5050505050905090565b5f61058f826110a1565b505f828152600460205260409020546001600160a01b031661049f565b6105b78282336110d9565b5050565b60608160ff166004036105eb57505060408051808201909152600781526611a221991b191b60c91b602082015290565b8160ff1660030361061957505060408051808201909152600781526611a31c9b99989b60c91b602082015290565b8160ff166002036106475750506040805180820190915260078152660468a82846660760cb1b602082015290565b50506040805180820190915260078152662332324335354560c81b602082015290565b6001600160a01b03821661069857604051633250574960e11b81525f60048201526024015b60405180910390fd5b5f6106a48383336110e6565b9050836001600160a01b0316816001600160a01b0316146106f2576040516364283d7b60e01b81526001600160a01b038086166004830152602482018490528216604482015260640161068f565b50505050565b6008546060905f60015b82811161074c575f818152600960205260409020600101546001600160a01b0380871691160361073a578161073681611fa4565b9250505b8061074481611fa4565b915050610702565b505f8167ffffffffffffffff81111561076757610767611c85565b604051908082528060200260200182016040528015610790578160200160208202803683370190505b5090505f60015b8481116107ff575f818152600960205260409020600101546001600160a01b038089169116036107ed57808383815181106107d4576107d4611fc8565b6020908102919091010152816107e981611fa4565b9250505b806107f781611fa4565b915050610797565b509095945050505050565b610812611074565b600e6105b78282612020565b6008545f9060015b818111610863575f818152600b602052604090205460ff1615610851578261084d81611fa4565b9350505b8061085b81611fa4565b915050610826565b505090565b61088283838360405180602001604052805f815250610fc3565b505050565b5f818152600960209081526040808320815160c0810183528154815260018201546001600160a01b03811694820194909452600160a01b90930460ff169183019190915260028101546060808401919091526003820180548594859485949385938493929160808401916108fa90611f6c565b80601f016020809104026020016040519081016040528092919081815260200182805461092690611f6c565b80156109715780601f1061094857610100808354040283529160200191610971565b820191905f5260205f20905b81548152906001019060200180831161095457829003601f168201915b50505091835250506004919091015460ff16151560209182015281519082015160408301516060840151608085015160a090950151939d929c50909a509850919650945092505050565b6109c533836111d8565b6109e25760405163ea8e4eb560e01b815260040160405180910390fd5b5f828152600b602052604090205460ff16610a1057604051632f45e5df60e01b815260040160405180910390fd5b5f600e82604051602001610a259291906120f2565b6040516020818303038152906040529050610a408382611269565b827f459157ba24c7ab9878b165ef465fa6ae2ab42bcd8445f576be378768b0c4730982604051610a709190611b9a565b60405180910390a2505050565b5f61049f826110a1565b610a8f611074565b6001600160a01b038116610ab65760405163e6c4247b60e01b815260040160405180910390fd5b600c80546001600160a01b0319166001600160a01b0392909216919091179055565b60096020525f9081526040902080546001820154600283015460038401805493946001600160a01b03841694600160a01b90940460ff1693909190610b1c90611f6c565b80601f0160208091040260200160405190810160405280929190818152602001828054610b4890611f6c565b8015610b935780601f10610b6a57610100808354040283529160200191610b93565b820191905f5260205f20905b815481529060010190602001808311610b7657829003601f168201915b5050506004909301549192505060ff1686565b5f6001600160a01b038216610bd0576040516322718ad960e21b81525f600482015260240161068f565b506001600160a01b03165f9081526003602052604090205490565b610bf3611074565b610bfc5f6112b8565b565b60606001805461050490611f6c565b60608160ff16600403610c3e57505060408051808201909152600881526710d492551250d05360c21b602082015290565b8160ff16600303610c69575050604080518082019091526004815263090928e960e31b602082015290565b8160ff16600203610c965750506040805180820190915260068152654d454449554d60d01b602082015290565b50506040805180820190915260038152624c4f5760e81b602082015290565b6105b7338383611309565b5f610cc96113d0565b600c546001600160a01b03163314801590610cef5750600d546001600160a01b03163314155b15610d0d5760405163ea8e4eb560e01b815260040160405180910390fd5b6001600160a01b038716610d345760405163e6c4247b60e01b815260040160405180910390fd5b60088054905f610d4383611fa4565b9091555050600854610d5588826113fe565b6040805160c0810182528781526001600160a01b03808a16602080840191825260ff808b168587019081524260608701908152608087018c8152600160a089018190525f8b815260099096529890942087518155945197850180549251909316600160a01b026001600160a81b03199092169790951696909617959095179094559051600282015591519091906003820190610df19082612020565b5060a091909101516004909101805491151560ff199283161790555f828152600b60209081526040808320805490941660011790935591519091610e3a91600e918791016120f2565b6040516020818303038152906040529050610e558282611269565b876001600160a01b0316896001600160a01b0316837f4d11bba94ed08338c093ab404c84f6c0615c1b51439f9b666edd217b326ce9b68a604051610e9b91815260200190565b60405180910390a4509050610ecf60017f9b779b17422d0df92223018b32b4d1fa46e071723d6817e2486d003becc55f0055565b9695505050505050565b600a602052815f5260405f208181548110610ef2575f80fd5b905f5260205f20015f91509150505481565b610f0e33836111d8565b610f2b5760405163ea8e4eb560e01b815260040160405180910390fd5b5f828152600b602052604090205460ff16610f5957604051632f45e5df60e01b815260040160405180910390fd5b5f828152600b60209081526040808320805460ff19908116909155600990925291829020600401805490911690555182907f65032d3cc955c731f4c2a4178f663dbcc6c08e5163bad5a3149773f3894548d390610fb7908490611b9a565b60405180910390a25050565b610fce84848461066a565b6106f23385858585611417565b606061049f8261153f565b6001600160a01b039182165f90815260056020908152604080832093909416825291909152205460ff1690565b61101b611074565b6001600160a01b03811661104457604051631e4fbdf760e01b81525f600482015260240161068f565b61104d816112b8565b50565b5f6001600160e01b03198216632483248360e11b148061049f575061049f826115c0565b6007546001600160a01b03163314610bfc5760405163118cdaa760e01b815233600482015260240161068f565b5f818152600260205260408120546001600160a01b03168061049f57604051637e27328960e01b81526004810184905260240161068f565b610882838383600161160f565b5f828152600260205260408120546001600160a01b039081169083161561111257611112818486611713565b6001600160a01b0381161561114c5761112d5f855f5f61160f565b6001600160a01b0381165f90815260036020526040902080545f190190555b6001600160a01b0385161561117a576001600160a01b0385165f908152600360205260409020805460010190555b5f8481526002602052604080822080546001600160a01b0319166001600160a01b0389811691821790925591518793918516917fddf252ad1be2c89b69c2b068fc378daa952ba7f163c4a11628f55a4df523b3ef91a4949350505050565b5f826001600160a01b03166111ec83610a7d565b6001600160a01b0316148061121a5750826001600160a01b031661120f83610585565b6001600160a01b0316145b80611232575061123261122c83610a7d565b84610fe6565b8061124a57506007546001600160a01b038481169116145b806112625750600c546001600160a01b038481169116145b9392505050565b5f8281526006602052604090206112808282612020565b506040518281527ff8e1a15aba9398e019f0b49df1a4fde98ee17ae345cb5f6b5e2c27f5033e8ce79060200160405180910390a15050565b600780546001600160a01b038381166001600160a01b0319831681179093556040519116919082907f8be0079c531659141344cd1fd0a4f28419497f9722a3daafe3b4186f6b6457e0905f90a35050565b6001600160a01b0383166113325760405163a9fbf51f60e01b81525f600482015260240161068f565b6001600160a01b03821661136457604051630b61174360e31b81526001600160a01b038316600482015260240161068f565b6001600160a01b038381165f81815260056020908152604080832094871680845294825291829020805460ff191686151590811790915591519182527f17307eab39ab6107e8899845ad3d59bd9653f200f220920489ca2b5937696c31910160405180910390a3505050565b6113d8611777565b60027f9b779b17422d0df92223018b32b4d1fa46e071723d6817e2486d003becc55f0055565b6105b7828260405180602001604052805f8152506117b9565b6001600160a01b0383163b1561153857604051630a85bd0160e11b81526001600160a01b0384169063150b7a029061145990889088908790879060040161216e565b6020604051808303815f875af1925050508015611493575060408051601f3d908101601f19168201909252611490918101906121a0565b60015b6114fa573d8080156114c0576040519150601f19603f3d011682016040523d82523d5f602084013e6114c5565b606091505b5080515f036114f257604051633250574960e11b81526001600160a01b038516600482015260240161068f565b805160208201fd5b6001600160e01b03198116630a85bd0160e11b1461153657604051633250574960e11b81526001600160a01b038516600482015260240161068f565b505b5050505050565b606061154a826110a1565b505f61156060408051602081019091525f815290565b90505f61156c846117d0565b905081515f0361157d579392505050565b8051156115af5781816040516020016115979291906121bb565b60405160208183030381529060405292505050919050565b6115b88461186f565b949350505050565b5f6001600160e01b031982166380ac58cd60e01b14806115f057506001600160e01b03198216635b5e139f60e01b145b8061049f57506301ffc9a760e01b6001600160e01b031983161461049f565b808061162357506001600160a01b03821615155b156116e4575f611632846110a1565b90506001600160a01b0383161580159061165e5750826001600160a01b0316816001600160a01b031614155b8015611671575061166f8184610fe6565b155b1561169a5760405163a9fbf51f60e01b81526001600160a01b038416600482015260240161068f565b81156116e25783856001600160a01b0316826001600160a01b03167f8c5be1e5ebec7d5bd14f71427d1e84f3dd0314c0f7b2291e5b200ac8c7c3b92560405160405180910390a45b505b50505f90815260046020526040902080546001600160a01b0319166001600160a01b0392909216919091179055565b61171e8383836118df565b610882576001600160a01b03831661174c57604051637e27328960e01b81526004810182905260240161068f565b60405163177e802f60e01b81526001600160a01b03831660048201526024810182905260440161068f565b7f9b779b17422d0df92223018b32b4d1fa46e071723d6817e2486d003becc55f0054600203610bfc57604051633ee5aeb560e01b815260040160405180910390fd5b6117c38383611940565b610882335f858585611417565b5f8181526006602052604090208054606091906117ec90611f6c565b80601f016020809104026020016040519081016040528092919081815260200182805461181890611f6c565b80156118635780601f1061183a57610100808354040283529160200191611863565b820191905f5260205f20905b81548152906001019060200180831161184657829003601f168201915b50505050509050919050565b606061187a826110a1565b505f61189060408051602081019091525f815290565b90505f8151116118ae5760405180602001604052805f815250611262565b806118b8846119a1565b6040516020016118c99291906121bb565b6040516020818303038152906040529392505050565b5f6001600160a01b038316158015906115b85750826001600160a01b0316846001600160a01b0316148061191857506119188484610fe6565b806115b85750505f908152600460205260409020546001600160a01b03908116911614919050565b6001600160a01b03821661196957604051633250574960e11b81525f600482015260240161068f565b5f61197583835f6110e6565b90506001600160a01b03811615610882576040516339e3563760e11b81525f600482015260240161068f565b60605f6119ad83611a31565b60010190505f8167ffffffffffffffff8111156119cc576119cc611c85565b6040519080825280601f01601f1916602001820160405280156119f6576020820181803683370190505b5090508181016020015b5f19016f181899199a1a9b1b9c1cb0b131b232b360811b600a86061a8153600a8504945084611a0057509392505050565b5f8072184f03e93ff9f4daa797ed6e38ed64bf6a1f0160401b8310611a6f5772184f03e93ff9f4daa797ed6e38ed64bf6a1f0160401b830492506040015b6d04ee2d6d415b85acef81000000008310611a9b576d04ee2d6d415b85acef8100000000830492506020015b662386f26fc100008310611ab957662386f26fc10000830492506010015b6305f5e1008310611ad1576305f5e100830492506008015b6127108310611ae557612710830492506004015b60648310611af7576064830492506002015b600a831061049f5760010192915050565b6001600160e01b03198116811461104d575f5ffd5b5f60208284031215611b2d575f5ffd5b813561126281611b08565b80356001600160a01b0381168114611b4e575f5ffd5b919050565b5f60208284031215611b63575f5ffd5b61126282611b38565b5f81518084528060208401602086015e5f602082860101526020601f19601f83011685010191505092915050565b602081525f6112626020830184611b6c565b5f60208284031215611bbc575f5ffd5b5035919050565b5f5f60408385031215611bd4575f5ffd5b611bdd83611b38565b946020939093013593505050565b803560ff81168114611b4e575f5ffd5b5f60208284031215611c0b575f5ffd5b61126282611beb565b5f5f5f60608486031215611c26575f5ffd5b611c2f84611b38565b9250611c3d60208501611b38565b929592945050506040919091013590565b602080825282518282018190525f918401906040840190835b818110156107ff578351835260209384019390920191600101611c67565b634e487b7160e01b5f52604160045260245ffd5b5f5f67ffffffffffffffff841115611cb357611cb3611c85565b50604051601f19601f85018116603f0116810181811067ffffffffffffffff82111715611ce257611ce2611c85565b604052838152905080828401851015611cf9575f5ffd5b838360208301375f60208583010152509392505050565b5f82601f830112611d1f575f5ffd5b61126283833560208501611c99565b5f60208284031215611d3e575f5ffd5b813567ffffffffffffffff811115611d54575f5ffd5b6115b884828501611d10565b86815260018060a01b038616602082015260ff8516604082015283606082015260c060808201525f611d9560c0830185611b6c565b905082151560a0830152979650505050505050565b5f5f60408385031215611dbb575f5ffd5b82359150602083013567ffffffffffffffff811115611dd8575f5ffd5b611de485828601611d10565b9150509250929050565b5f5f60408385031215611dff575f5ffd5b611e0883611b38565b915060208301358015158114611e1c575f5ffd5b809150509250929050565b5f5f5f5f5f5f60c08789031215611e3c575f5ffd5b611e4587611b38565b9550611e5360208801611b38565b945060408701359350611e6860608801611beb565b9250608087013567ffffffffffffffff811115611e83575f5ffd5b611e8f89828a01611d10565b92505060a087013567ffffffffffffffff811115611eab575f5ffd5b611eb789828a01611d10565b9150509295509295509295565b5f5f5f5f60808587031215611ed7575f5ffd5b611ee085611b38565b9350611eee60208601611b38565b925060408501359150606085013567ffffffffffffffff811115611f10575f5ffd5b8501601f81018713611f20575f5ffd5b611f2f87823560208401611c99565b91505092959194509250565b5f5f60408385031215611f4c575f5ffd5b611f5583611b38565b9150611f6360208401611b38565b90509250929050565b600181811c90821680611f8057607f821691505b602082108103611f9e57634e487b7160e01b5f52602260045260245ffd5b50919050565b5f60018201611fc157634e487b7160e01b5f52601160045260245ffd5b5060010190565b634e487b7160e01b5f52603260045260245ffd5b601f82111561088257805f5260205f20601f840160051c810160208510156120015750805b601f840160051c820191505b81811015611538575f815560010161200d565b815167ffffffffffffffff81111561203a5761203a611c85565b61204e816120488454611f6c565b84611fdc565b6020601f821160018114612080575f83156120695750848201515b5f19600385901b1c1916600184901b178455611538565b5f84815260208120601f198516915b828110156120af578785015182556020948501946001909201910161208f565b50848210156120cc57868401515f19600387901b60f8161c191681555b50505050600190811b01905550565b5f81518060208401855e5f93019283525090919050565b5f5f84546120ff81611f6c565b600182168015612116576001811461212b57612158565b60ff1983168652811515820286019350612158565b875f5260205f205f5b8381101561215057815488820152600190910190602001612134565b505081860193505b50505061216581856120db565b95945050505050565b6001600160a01b03858116825284166020820152604081018390526080606082018190525f90610ecf90830184611b6c565b5f602082840312156121b0575f5ffd5b815161126281611b08565b5f6115b86121c983866120db565b846120db56fea26469706673582212203d3ad036eadaebb2126c5d2a7c615bde5dc7119d06bd2d39007fdcc49b24205e64736f6c634300081e0033","linkReferences":{}},"methodIdentifiers":{"aiAgent()":"a6d5b732","auditNFT()":"f68df3a7","baseTokenURI()":"d547cfb7","contractBytecode(address)":"e40aca6a","contractReportIds(address)":"2c01e67a","getContractCertificates(address)":"2b06cf5d","getMonitoringStatus(address)":"3f603adb","getSystemStats()":"d1ce59a7","getVulnerabilitySummary(address)":"3c915647","monitoringConfigs(address)":"6cd83bfa","owner()":"8da5cb5b","registerContract(address,uint256)":"152f0eb5","renounceOwnership()":"715018a6","scanContract(address)":"16d23bf8","securityRegistry()":"9b21f9ae","setAIAgent(address)":"6ebe941b","setBaseTokenURI(string)":"30176e13","totalContractsMonitored()":"92c0ac5f","totalScansPerformed()":"f31464c6","transferOwnership(address)":"f2fde38b","updateMonitoringConfig(address,bool,uint256)":"1362e960"},"id":46}