{"abi":[{"type":"constructor","inputs":[{"name":"initialOwner","type":"address","internalType":"address"},{"name":"_securityRegistry","type":"address","internalType":"address"},{"name":"baseURI","type":"string","internalType":"string"}],"stateMutability":"nonpayable"},{"type":"function","name":"approve","inputs":[{"name":"to","type":"address","internalType":"address"},{"name":"tokenId","type":"uint256","internalType":"uint256"}],"outputs":[],"stateMutability":"nonpayable"},{"type":"function","name":"balanceOf","inputs":[{"name":"owner","type":"address","internalType":"address"}],"outputs":[{"name":"","type":"uint256","internalType":"uint256"}],"stateMutability":"view"},{"type":"function","name":"certificates","inputs":[{"name":"","type":"uint256","internalType":"uint256"}],"outputs":[{"name":"reportId","type":"uint256","internalType":"uint256"},{"name":"contractAddress","type":"address","internalType":"address"},{"name":"maxSeverity","type":"uint8","internalType":"uint8"},{"name":"auditTimestamp","type":"uint256","internalType":"uint256"},{"name":"auditor","type":"string","internalType":"string"},{"name":"isValid","type":"bool","internalType":"bool"}],"stateMutability":"view"},{"type":"function","name":"chainGuardAddress","inputs":[],"outputs":[{"name":"","type":"address","internalType":"address"}],"stateMutability":"view"},{"type":"function","name":"contractCertificates","inputs":[{"name":"","type":"address","internalType":"address"},{"name":"","type":"uint256","internalType":"uint256"}],"outputs":[{"name":"","type":"uint256","internalType":"uint256"}],"stateMutability":"view"},{"type":"function","name":"getApproved","inputs":[{"name":"tokenId","type":"uint256","internalType":"uint256"}],"outputs":[{"name":"","type":"address","internalType":"address"}],"stateMutability":"view"},{"type":"function","name":"getCertificate","inputs":[{"name":"tokenId","type":"uint256","internalType":"uint256"}],"outputs":[{"name":"reportId","type":"uint256","internalType":"uint256"},{"name":"contractAddress","type":"address","internalType":"address"},{"name":"maxSeverity","type":"uint8","internalType":"uint8"},{"name":"auditTimestamp","type":"uint256","internalType":"uint256"},{"name":"auditor","type":"string","internalType":"string"},{"name":"isValid","type":"bool","internalType":"bool"}],"stateMutability":"view"},{"type":"function","name":"getContractCertificates","inputs":[{"name":"contractAddress","type":"address","internalType":"address"}],"outputs":[{"name":"","type":"uint256[]","internalType":"uint256[]"}],"stateMutability":"view"},{"type":"function","name":"getSeverityColor","inputs":[{"name":"severity","type":"uint8","internalType":"uint8"}],"outputs":[{"name":"","type":"string","internalType":"string"}],"stateMutability":"pure"},{"type":"function","name":"getSeverityLabel","inputs":[{"name":"severity","type":"uint8","internalType":"uint8"}],"outputs":[{"name":"","type":"string","internalType":"string"}],"stateMutability":"pure"},{"type":"function","name":"getValidCertificatesCount","inputs":[],"outputs":[{"name":"count","type":"uint256","internalType":"uint256"}],"stateMutability":"view"},{"type":"function","name":"isApprovedForAll","inputs":[{"name":"owner","type":"address","internalType":"address"},{"name":"operator","type":"address","internalType":"address"}],"outputs":[{"name":"","type":"bool","internalType":"bool"}],"stateMutability":"view"},{"type":"function","name":"mintCertificate","inputs":[{"name":"to","type":"address","internalType":"address"},{"name":"contractAddress","type":"address","internalType":"address"},{"name":"reportId","type":"uint256","internalType":"uint256"},{"name":"maxSeverity","type":"uint8","internalType":"uint8"},{"name":"auditor","type":"string","internalType":"string"},{"name":"ipfsHash","type":"string","internalType":"string"}],"outputs":[{"name":"","type":"uint256","internalType":"uint256"}],"stateMutability":"nonpayable"},{"type":"function","name":"name","inputs":[],"outputs":[{"name":"","type":"string","internalType":"string"}],"stateMutability":"view"},{"type":"function","name":"owner","inputs":[],"outputs":[{"name":"","type":"address","internalType":"address"}],"stateMutability":"view"},{"type":"function","name":"ownerOf","inputs":[{"name":"tokenId","type":"uint256","internalType":"uint256"}],"outputs":[{"name":"","type":"address","internalType":"address"}],"stateMutability":"view"},{"type":"function","name":"renounceOwnership","inputs":[],"outputs":[],"stateMutability":"nonpayable"},{"type":"function","name":"revokeCertificate","inputs":[{"name":"tokenId","type":"uint256","internalType":"uint256"},{"name":"reason","type":"string","internalType":"string"}],"outputs":[],"stateMutability":"nonpayable"},{"type":"function","name":"safeTransferFrom","inputs":[{"name":"from","type":"address","internalType":"address"},{"name":"to","type":"address","internalType":"address"},{"name":"tokenId","type":"uint256","internalType":"uint256"}],"outputs":[],"stateMutability":"nonpayable"},{"type":"function","name":"safeTransferFrom","inputs":[{"name":"from","type":"address","internalType":"address"},{"name":"to","type":"address","internalType":"address"},{"name":"tokenId","type":"uint256","internalType":"uint256"},{"name":"data","type":"bytes","internalType":"bytes"}],"outputs":[],"stateMutability":"nonpayable"},{"type":"function","name":"securityRegistry","inputs":[],"outputs":[{"name":"","type":"address","internalType":"address"}],"stateMutability":"view"},{"type":"function","name":"setApprovalForAll","inputs":[{"name":"operator","type":"address","internalType":"address"},{"name":"approved","type":"bool","internalType":"bool"}],"outputs":[],"stateMutability":"nonpayable"},{"type":"function","name":"setBaseTokenURI","inputs":[{"name":"baseURI","type":"string","internalType":"string"}],"outputs":[],"stateMutability":"nonpayable"},{"type":"function","name":"setChainGuardAddress","inputs":[{"name":"_chainGuard","type":"address","internalType":"address"}],"outputs":[],"stateMutability":"nonpayable"},{"type":"function","name":"setSecurityRegistry","inputs":[{"name":"_securityRegistry","type":"address","internalType":"address"}],"outputs":[],"stateMutability":"nonpayable"},{"type":"function","name":"supportsInterface","inputs":[{"name":"interfaceId","type":"bytes4","internalType":"bytes4"}],"outputs":[{"name":"","type":"bool","internalType":"bool"}],"stateMutability":"view"},{"type":"function","name":"symbol","inputs":[],"outputs":[{"name":"","type":"string","internalType":"string"}],"stateMutability":"view"},{"type":"function","name":"tokenURI","inputs":[{"name":"tokenId","type":"uint256","internalType":"uint256"}],"outputs":[{"name":"","type":"string","internalType":"string"}],"stateMutability":"view"},{"type":"function","name":"transferFrom","inputs":[{"name":"from","type":"address","internalType":"address"},{"name":"to","type":"address","internalType":"address"},{"name":"tokenId","type":"uint256","internalType":"uint256"}],"outputs":[],"stateMutability":"nonpayable"},{"type":"function","name":"transferOwnership","inputs":[{"name":"newOwner","type":"address","internalType":"address"}],"outputs":[],"stateMutability":"nonpayable"},{"type":"function","name":"updateMetadata","inputs":[{"name":"tokenId","type":"uint256","internalType":"uint256"},{"name":"ipfsHash","type":"string","internalType":"string"}],"outputs":[],"stateMutability":"nonpayable"},{"type":"function","name":"validCertificates","inputs":[{"name":"","type":"uint256","internalType":"uint256"}],"outputs":[{"name":"","type":"bool","internalType":"bool"}],"stateMutability":"view"},{"type":"event","name":"Approval","inputs":[{"name":"owner","type":"address","indexed":true,"internalType":"address"},{"name":"approved","type":"address","indexed":true,"internalType":"address"},{"name":"tokenId","type":"uint256","indexed":true,"internalType":"uint256"}],"anonymous":false},{"type":"event","name":"ApprovalForAll","inputs":[{"name":"owner","type":"address","indexed":true,"internalType":"address"},{"name":"operator","type":"address","indexed":true,"internalType":"address"},{"name":"approved","type":"bool","indexed":false,"internalType":"bool"}],"anonymous":false},{"type":"event","name":"BatchMetadataUpdate","inputs":[{"name":"_fromTokenId","type":"uint256","indexed":false,"internalType":"uint256"},{"name":"_toTokenId","type":"uint256","indexed":false,"internalType":"uint256"}],"anonymous":false},{"type":"event","name":"CertificateMinted","inputs":[{"name":"tokenId","type":"uint256","indexed":true,"internalType":"uint256"},{"name":"to","type":"address","indexed":true,"internalType":"address"},{"name":"contractAddress","type":"address","indexed":true,"internalType":"address"},{"name":"reportId","type":"uint256","indexed":false,"internalType":"uint256"}],"anonymous":false},{"type":"event","name":"CertificateRevoked","inputs":[{"name":"tokenId","type":"uint256","indexed":true,"internalType":"uint256"},{"name":"reason","type":"string","indexed":false,"internalType":"string"}],"anonymous":false},{"type":"event","name":"MetadataUpdate","inputs":[{"name":"_tokenId","type":"uint256","indexed":false,"internalType":"uint256"}],"anonymous":false},{"type":"event","name":"MetadataUpdated","inputs":[{"name":"tokenId","type":"uint256","indexed":true,"internalType":"uint256"},{"name":"newTokenURI","type":"string","indexed":false,"internalType":"string"}],"anonymous":false},{"type":"event","name":"OwnershipTransferred","inputs":[{"name":"previousOwner","type":"address","indexed":true,"internalType":"address"},{"name":"newOwner","type":"address","indexed":true,"internalType":"address"}],"anonymous":false},{"type":"event","name":"Transfer","inputs":[{"name":"from","type":"address","indexed":true,"internalType":"address"},{"name":"to","type":"address","indexed":true,"internalType":"address"},{"name":"tokenId","type":"uint256","indexed":true,"internalType":"uint256"}],"anonymous":false},{"type":"error","name":"AlreadyRevoked","inputs":[]},{"type":"error","name":"CertificateNotValid","inputs":[]},{"type":"error","name":"ERC721IncorrectOwner","inputs":[{"name":"sender","type":"address","internalType":"address"},{"name":"tokenId","type":"uint256","internalType":"uint256"},{"name":"owner","type":"address","internalType":"address"}]},{"type":"error","name":"ERC721InsufficientApproval","inputs":[{"name":"operator","type":"address","internalType":"address"},{"name":"tokenId","type":"uint256","internalType":"uint256"}]},{"type":"error","name":"ERC721InvalidApprover","inputs":[{"name":"approver","type":"address","internalType":"address"}]},{"type":"error","name":"ERC721InvalidOperator","inputs":[{"name":"operator","type":"address","internalType":"address"}]},{"type":"error","name":"ERC721InvalidOwner","inputs":[{"name":"owner","type":"address","internalType":"address"}]},{"type":"error","name":"ERC721InvalidReceiver","inputs":[{"name":"receiver","type":"address","internalType":"address"}]},{"type":"error","name":"ERC721InvalidSender","inputs":[{"name":"sender","type":"address","internalType":"address"}]},{"type":"error","name":"ERC721NonexistentToken","inputs":[{"name":"tokenId","type":"uint256","internalType":"uint256"}]},{"type":"error","name":"InvalidAddress","inputs":[]},{"type":"error","name":"InvalidRegistry","inputs":[]},{"type":"error","name":"InvalidTokenId","inputs":[]},{"type":"error","name":"NotAuthorized","inputs":[]},{"type":"error","name":"OwnableInvalidOwner","inputs":[{"name":"owner","type":"address","internalType":"address"}]},{"type":"error","name":"OwnableUnauthorizedAccount","inputs":[{"name":"account","type":"address","internalType":"address"}]},{"type":"error","name":"ReentrancyGuardReentrantCall","inputs":[]}],"bytecode":{"object":"0x608060405234801561000f575f5ffd5b5060405161260238038061260283398101604081905261002e916101e1565b826040518060400160405280601c81526020017f436861696e47756172642041756469742043657274696669636174650000000081525060405180604001604052806005815260200164105551125560da1b815250815f90816100919190610336565b50600161009e8282610336565b5050506001600160a01b0381166100ce57604051631e4fbdf760e01b81525f600482015260240160405180910390fd5b6100d781610161565b5060017f9b779b17422d0df92223018b32b4d1fa46e071723d6817e2486d003becc55f00556001600160a01b0382166101235760405163e6c4247b60e01b815260040160405180910390fd5b600c80546001600160a01b0384166001600160a01b031991821617909155600d805490911633179055600e6101588282610336565b505050506103f0565b600780546001600160a01b038381166001600160a01b0319831681179093556040519116919082907f8be0079c531659141344cd1fd0a4f28419497f9722a3daafe3b4186f6b6457e0905f90a35050565b80516001600160a01b03811681146101c8575f5ffd5b919050565b634e487b7160e01b5f52604160045260245ffd5b5f5f5f606084860312156101f3575f5ffd5b6101fc846101b2565b925061020a602085016101b2565b60408501519092506001600160401b03811115610225575f5ffd5b8401601f81018613610235575f5ffd5b80516001600160401b0381111561024e5761024e6101cd565b604051601f8201601f19908116603f011681016001600160401b038111828210171561027c5761027c6101cd565b604052818152828201602001881015610293575f5ffd5b8160208401602083015e5f602083830101528093505050509250925092565b600181811c908216806102c657607f821691505b6020821081036102e457634e487b7160e01b5f52602260045260245ffd5b50919050565b601f82111561033157805f5260205f20601f840160051c8101602085101561030f5750805b601f840160051c820191505b8181101561032e575f815560010161031b565b50505b505050565b81516001600160401b0381111561034f5761034f6101cd565b6103638161035d84546102b2565b846102ea565b6020601f821160018114610395575f831561037e5750848201515b5f19600385901b1c1916600184901b17845561032e565b5f84815260208120601f198516915b828110156103c457878501518255602094850194600190920191016103a4565b50848210156103e157868401515f19600387901b60f8161c191681555b50505050600190811b01905550565b612205806103fd5f395ff3fe608060405234801561000f575f5ffd5b50600436106101e7575f3560e01c8063663b3e2211610109578063a436c2011161009e578063c4cdfe1e1161006e578063c4cdfe1e1461043a578063c87b56dd1461045c578063e985e9c51461046f578063f2fde38b14610482575f5ffd5b8063a436c201146103ee578063ab06818314610401578063b1466d1d14610414578063b88d4fde14610427575f5ffd5b806395d89b41116100d957806395d89b41146103ad5780639b21f9ae146103b5578063a1794359146103c8578063a22cb465146103db575f5ffd5b8063663b3e221461036e57806370a0823114610381578063715018a6146103945780638da5cb5b1461039c575f5ffd5b80632b06cf5d1161017f57806351640fee1161014f57806351640fee1461031057806353c8388e146103355780636352211e1461034857806364fae8a91461035b575f5ffd5b80632b06cf5d146102b457806330176e13146102d457806340be1f81146102e757806342842e0e146102fd575f5ffd5b8063095ea7b3116101ba578063095ea7b3146102685780630a828e571461027b578063128ebb4a1461028e57806323b872dd146102a1575f5ffd5b806301ffc9a7146101eb5780630229bffe1461021357806306fdde0314610228578063081812fc1461023d575b5f5ffd5b6101fe6101f9366004611b1d565b610495565b60405190151581526020015b60405180910390f35b610226610221366004611b53565b6104a5565b005b6102306104f6565b60405161020a9190611b9a565b61025061024b366004611bac565b610585565b6040516001600160a01b03909116815260200161020a565b610226610276366004611bc3565b6105ac565b600d54610250906001600160a01b031681565b61023061029c366004611bfb565b6105bb565b6102266102af366004611c14565b61066a565b6102c76102c2366004611b53565b6106f8565b60405161020a9190611c4e565b6102266102e2366004611d2e565b61080a565b6102ef61081e565b60405190815260200161020a565b61022661030b366004611c14565b610868565b61032361031e366004611bac565b610887565b60405161020a96959493929190611d60565b610226610343366004611daa565b6109bb565b610250610356366004611bac565b610a7d565b610226610369366004611b53565b610a87565b61032361037c366004611bac565b610ad8565b6102ef61038f366004611b53565b610ba6565b610226610beb565b6007546001600160a01b0316610250565b610230610bfe565b600c54610250906001600160a01b031681565b6102306103d6366004611bfb565b610c0d565b6102266103e9366004611dee565b610cb5565b6102ef6103fc366004611e27565b610cc0565b6102ef61040f366004611bc3565b610ed9565b610226610422366004611daa565b610f04565b610226610435366004611ec4565b610fc3565b6101fe610448366004611bac565b600b6020525f908152604090205460ff1681565b61023061046a366004611bac565b610fdb565b6101fe61047d366004611f3b565b610fe6565b610226610490366004611b53565b611013565b5f61049f82611050565b92915050565b6104ad611074565b6001600160a01b0381166104d45760405163e6c4247b60e01b815260040160405180910390fd5b600d80546001600160a01b0319166001600160a01b0392909216919091179055565b60605f805461050490611f6c565b80601f016020809104026020016040519081016040528092919081815260200182805461053090611f6c565b801561057b5780601f106105525761010080835404028352916020019161057b565b820191905f5260205f20905b81548152906001019060200180831161055e57829003601f168201915b5050505050905090565b5f61058f826110a1565b505f828152600460205260409020546001600160a01b031661049f565b6105b78282336110d9565b5050565b60608160ff166004036105eb57505060408051808201909152600781526611a221991b191b60c91b602082015290565b8160ff1660030361061957505060408051808201909152600781526611a31c9b99989b60c91b602082015290565b8160ff166002036106475750506040805180820190915260078152660468a82846660760cb1b602082015290565b50506040805180820190915260078152662332324335354560c81b602082015290565b6001600160a01b03821661069857604051633250574960e11b81525f60048201526024015b60405180910390fd5b5f6106a48383336110e6565b9050836001600160a01b0316816001600160a01b0316146106f2576040516364283d7b60e01b81526001600160a01b038086166004830152602482018490528216604482015260640161068f565b50505050565b6008546060905f60015b82811161074c575f818152600960205260409020600101546001600160a01b0380871691160361073a578161073681611fa4565b9250505b8061074481611fa4565b915050610702565b505f8167ffffffffffffffff81111561076757610767611c85565b604051908082528060200260200182016040528015610790578160200160208202803683370190505b5090505f60015b8481116107ff575f818152600960205260409020600101546001600160a01b038089169116036107ed57808383815181106107d4576107d4611fc8565b6020908102919091010152816107e981611fa4565b9250505b806107f781611fa4565b915050610797565b509095945050505050565b610812611074565b600e6105b78282612020565b6008545f9060015b818111610863575f818152600b602052604090205460ff1615610851578261084d81611fa4565b9350505b8061085b81611fa4565b915050610826565b505090565b61088283838360405180602001604052805f815250610fc3565b505050565b5f818152600960209081526040808320815160c0810183528154815260018201546001600160a01b03811694820194909452600160a01b90930460ff169183019190915260028101546060808401919091526003820180548594859485949385938493929160808401916108fa90611f6c565b80601f016020809104026020016040519081016040528092919081815260200182805461092690611f6c565b80156109715780601f1061094857610100808354040283529160200191610971565b820191905f5260205f20905b81548152906001019060200180831161095457829003601f168201915b50505091835250506004919091015460ff16151560209182015281519082015160408301516060840151608085015160a090950151939d929c50909a509850919650945092505050565b6109c533836111d8565b6109e25760405163ea8e4eb560e01b815260040160405180910390fd5b5f828152600b602052604090205460ff16610a1057604051632f45e5df60e01b815260040160405180910390fd5b5f600e82604051602001610a259291906120f2565b6040516020818303038152906040529050610a408382611269565b827f459157ba24c7ab9878b165ef465fa6ae2ab42bcd8445f576be378768b0c4730982604051610a709190611b9a565b60405180910390a2505050565b5f61049f826110a1565b610a8f611074565b6001600160a01b038116610ab65760405163e6c4247b60e01b815260040160405180910390fd5b600c80546001600160a01b0319166001600160a01b0392909216919091179055565b60096020525f9081526040902080546001820154600283015460038401805493946001600160a01b03841694600160a01b90940460ff1693909190610b1c90611f6c565b80601f0160208091040260200160405190810160405280929190818152602001828054610b4890611f6c565b8015610b935780601f10610b6a57610100808354040283529160200191610b93565b820191905f5260205f20905b815481529060010190602001808311610b7657829003601f168201915b5050506004909301549192505060ff1686565b5f6001600160a01b038216610bd0576040516322718ad960e21b81525f600482015260240161068f565b506001600160a01b03165f9081526003602052604090205490565b610bf3611074565b610bfc5f6112b8565b565b60606001805461050490611f6c565b60608160ff16600403610c3e57505060408051808201909152600881526710d492551250d05360c21b602082015290565b8160ff16600303610c69575050604080518082019091526004815263090928e960e31b602082015290565b8160ff16600203610c965750506040805180820190915260068152654d454449554d60d01b602082015290565b50506040805180820190915260038152624c4f5760e81b602082015290565b6105b7338383611309565b5f610cc96113d0565b600c546001600160a01b03163314801590610cef5750600d546001600160a01b03163314155b15610d0d5760405163ea8e4eb560e01b815260040160405180910390fd5b6001600160a01b038716610d345760405163e6c4247b60e01b815260040160405180910390fd5b60088054905f610d4383611fa4565b9091555050600854610d5588826113fe565b6040805160c0810182528781526001600160a01b03808a16602080840191825260ff808b168587019081524260608701908152608087018c8152600160a089018190525f8b815260099096529890942087518155945197850180549251909316600160a01b026001600160a81b03199092169790951696909617959095179094559051600282015591519091906003820190610df19082612020565b5060a091909101516004909101805491151560ff199283161790555f828152600b60209081526040808320805490941660011790935591519091610e3a91600e918791016120f2565b6040516020818303038152906040529050610e558282611269565b876001600160a01b0316896001600160a01b0316837f4d11bba94ed08338c093ab404c84f6c0615c1b51439f9b666edd217b326ce9b68a604051610e9b91815260200190565b60405180910390a4509050610ecf60017f9b779b17422d0df92223018b32b4d1fa46e071723d6817e2486d003becc55f0055565b9695505050505050565b600a602052815f5260405f208181548110610ef2575f80fd5b905f5260205f20015f91509150505481565b610f0e33836111d8565b610f2b5760405163ea8e4eb560e01b815260040160405180910390fd5b5f828152600b602052604090205460ff16610f5957604051632f45e5df60e01b815260040160405180910390fd5b5f828152600b60209081526040808320805460ff19908116909155600990925291829020600401805490911690555182907f65032d3cc955c731f4c2a4178f663dbcc6c08e5163bad5a3149773f3894548d390610fb7908490611b9a565b60405180910390a25050565b610fce84848461066a565b6106f23385858585611417565b606061049f8261153f565b6001600160a01b039182165f90815260056020908152604080832093909416825291909152205460ff1690565b61101b611074565b6001600160a01b03811661104457604051631e4fbdf760e01b81525f600482015260240161068f565b61104d816112b8565b50565b5f6001600160e01b03198216632483248360e11b148061049f575061049f826115c0565b6007546001600160a01b03163314610bfc5760405163118cdaa760e01b815233600482015260240161068f565b5f818152600260205260408120546001600160a01b03168061049f57604051637e27328960e01b81526004810184905260240161068f565b610882838383600161160f565b5f828152600260205260408120546001600160a01b039081169083161561111257611112818486611713565b6001600160a01b0381161561114c5761112d5f855f5f61160f565b6001600160a01b0381165f90815260036020526040902080545f190190555b6001600160a01b0385161561117a576001600160a01b0385165f908152600360205260409020805460010190555b5f8481526002602052604080822080546001600160a01b0319166001600160a01b0389811691821790925591518793918516917fddf252ad1be2c89b69c2b068fc378daa952ba7f163c4a11628f55a4df523b3ef91a4949350505050565b5f826001600160a01b03166111ec83610a7d565b6001600160a01b0316148061121a5750826001600160a01b031661120f83610585565b6001600160a01b0316145b80611232575061123261122c83610a7d565b84610fe6565b8061124a57506007546001600160a01b038481169116145b806112625750600c546001600160a01b038481169116145b9392505050565b5f8281526006602052604090206112808282612020565b506040518281527ff8e1a15aba9398e019f0b49df1a4fde98ee17ae345cb5f6b5e2c27f5033e8ce79060200160405180910390a15050565b600780546001600160a01b038381166001600160a01b0319831681179093556040519116919082907f8be0079c531659141344cd1fd0a4f28419497f9722a3daafe3b4186f6b6457e0905f90a35050565b6001600160a01b0383166113325760405163a9fbf51f60e01b81525f600482015260240161068f565b6001600160a01b03821661136457604051630b61174360e31b81526001600160a01b038316600482015260240161068f565b6001600160a01b038381165f81815260056020908152604080832094871680845294825291829020805460ff191686151590811790915591519182527f17307eab39ab6107e8899845ad3d59bd9653f200f220920489ca2b5937696c31910160405180910390a3505050565b6113d8611777565b60027f9b779b17422d0df92223018b32b4d1fa46e071723d6817e2486d003becc55f0055565b6105b7828260405180602001604052805f8152506117b9565b6001600160a01b0383163b1561153857604051630a85bd0160e11b81526001600160a01b0384169063150b7a029061145990889088908790879060040161216e565b6020604051808303815f875af1925050508015611493575060408051601f3d908101601f19168201909252611490918101906121a0565b60015b6114fa573d8080156114c0576040519150601f19603f3d011682016040523d82523d5f602084013e6114c5565b606091505b5080515f036114f257604051633250574960e11b81526001600160a01b038516600482015260240161068f565b805160208201fd5b6001600160e01b03198116630a85bd0160e11b1461153657604051633250574960e11b81526001600160a01b038516600482015260240161068f565b505b5050505050565b606061154a826110a1565b505f61156060408051602081019091525f815290565b90505f61156c846117d0565b905081515f0361157d579392505050565b8051156115af5781816040516020016115979291906121bb565b60405160208183030381529060405292505050919050565b6115b88461186f565b949350505050565b5f6001600160e01b031982166380ac58cd60e01b14806115f057506001600160e01b03198216635b5e139f60e01b145b8061049f57506301ffc9a760e01b6001600160e01b031983161461049f565b808061162357506001600160a01b03821615155b156116e4575f611632846110a1565b90506001600160a01b0383161580159061165e5750826001600160a01b0316816001600160a01b031614155b8015611671575061166f8184610fe6565b155b1561169a5760405163a9fbf51f60e01b81526001600160a01b038416600482015260240161068f565b81156116e25783856001600160a01b0316826001600160a01b03167f8c5be1e5ebec7d5bd14f71427d1e84f3dd0314c0f7b2291e5b200ac8c7c3b92560405160405180910390a45b505b50505f90815260046020526040902080546001600160a01b0319166001600160a01b0392909216919091179055565b61171e8383836118df565b610882576001600160a01b03831661174c57604051637e27328960e01b81526004810182905260240161068f565b60405163177e802f60e01b81526001600160a01b03831660048201526024810182905260440161068f565b7f9b779b17422d0df92223018b32b4d1fa46e071723d6817e2486d003becc55f0054600203610bfc57604051633ee5aeb560e01b815260040160405180910390fd5b6117c38383611940565b610882335f858585611417565b5f8181526006602052604090208054606091906117ec90611f6c565b80601f016020809104026020016040519081016040528092919081815260200182805461181890611f6c565b80156118635780601f1061183a57610100808354040283529160200191611863565b820191905f5260205f20905b81548152906001019060200180831161184657829003601f168201915b50505050509050919050565b606061187a826110a1565b505f61189060408051602081019091525f815290565b90505f8151116118ae5760405180602001604052805f815250611262565b806118b8846119a1565b6040516020016118c99291906121bb565b6040516020818303038152906040529392505050565b5f6001600160a01b038316158015906115b85750826001600160a01b0316846001600160a01b0316148061191857506119188484610fe6565b806115b85750505f908152600460205260409020546001600160a01b03908116911614919050565b6001600160a01b03821661196957604051633250574960e11b81525f600482015260240161068f565b5f61197583835f6110e6565b90506001600160a01b03811615610882576040516339e3563760e11b81525f600482015260240161068f565b60605f6119ad83611a31565b60010190505f8167ffffffffffffffff8111156119cc576119cc611c85565b6040519080825280601f01601f1916602001820160405280156119f6576020820181803683370190505b5090508181016020015b5f19016f181899199a1a9b1b9c1cb0b131b232b360811b600a86061a8153600a8504945084611a0057509392505050565b5f8072184f03e93ff9f4daa797ed6e38ed64bf6a1f0160401b8310611a6f5772184f03e93ff9f4daa797ed6e38ed64bf6a1f0160401b830492506040015b6d04ee2d6d415b85acef81000000008310611a9b576d04ee2d6d415b85acef8100000000830492506020015b662386f26fc100008310611ab957662386f26fc10000830492506010015b6305f5e1008310611ad1576305f5e100830492506008015b6127108310611ae557612710830492506004015b60648310611af7576064830492506002015b600a831061049f5760010192915050565b6001600160e01b03198116811461104d575f5ffd5b5f60208284031215611b2d575f5ffd5b813561126281611b08565b80356001600160a01b0381168114611b4e575f5ffd5b919050565b5f60208284031215611b63575f5ffd5b61126282611b38565b5f81518084528060208401602086015e5f602082860101526020601f19601f83011685010191505092915050565b602081525f6112626020830184611b6c565b5f60208284031215611bbc575f5ffd5b5035919050565b5f5f60408385031215611bd4575f5ffd5b611bdd83611b38565b946020939093013593505050565b803560ff81168114611b4e575f5ffd5b5f60208284031215611c0b575f5ffd5b61126282611beb565b5f5f5f60608486031215611c26575f5ffd5b611c2f84611b38565b9250611c3d60208501611b38565b929592945050506040919091013590565b602080825282518282018190525f918401906040840190835b818110156107ff578351835260209384019390920191600101611c67565b634e487b7160e01b5f52604160045260245ffd5b5f5f67ffffffffffffffff841115611cb357611cb3611c85565b50604051601f19601f85018116603f0116810181811067ffffffffffffffff82111715611ce257611ce2611c85565b604052838152905080828401851015611cf9575f5ffd5b838360208301375f60208583010152509392505050565b5f82601f830112611d1f575f5ffd5b61126283833560208501611c99565b5f60208284031215611d3e575f5ffd5b813567ffffffffffffffff811115611d54575f5ffd5b6115b884828501611d10565b86815260018060a01b038616602082015260ff8516604082015283606082015260c060808201525f611d9560c0830185611b6c565b905082151560a0830152979650505050505050565b5f5f60408385031215611dbb575f5ffd5b82359150602083013567ffffffffffffffff811115611dd8575f5ffd5b611de485828601611d10565b9150509250929050565b5f5f60408385031215611dff575f5ffd5b611e0883611b38565b915060208301358015158114611e1c575f5ffd5b809150509250929050565b5f5f5f5f5f5f60c08789031215611e3c575f5ffd5b611e4587611b38565b9550611e5360208801611b38565b945060408701359350611e6860608801611beb565b9250608087013567ffffffffffffffff811115611e83575f5ffd5b611e8f89828a01611d10565b92505060a087013567ffffffffffffffff811115611eab575f5ffd5b611eb789828a01611d10565b9150509295509295509295565b5f5f5f5f60808587031215611ed7575f5ffd5b611ee085611b38565b9350611eee60208601611b38565b925060408501359150606085013567ffffffffffffffff811115611f10575f5ffd5b8501601f81018713611f20575f5ffd5b611f2f87823560208401611c99565b91505092959194509250565b5f5f60408385031215611f4c575f5ffd5b611f5583611b38565b9150611f6360208401611b38565b90509250929050565b600181811c90821680611f8057607f821691505b602082108103611f9e57634e487b7160e01b5f52602260045260245ffd5b50919050565b5f60018201611fc157634e487b7160e01b5f52601160045260245ffd5b5060010190565b634e487b7160e01b5f52603260045260245ffd5b601f82111561088257805f5260205f20601f840160051c810160208510156120015750805b601f840160051c820191505b81811015611538575f815560010161200d565b815167ffffffffffffffff81111561203a5761203a611c85565b61204e816120488454611f6c565b84611fdc565b6020601f821160018114612080575f83156120695750848201515b5f19600385901b1c1916600184901b178455611538565b5f84815260208120601f198516915b828110156120af578785015182556020948501946001909201910161208f565b50848210156120cc57868401515f19600387901b60f8161c191681555b50505050600190811b01905550565b5f81518060208401855e5f93019283525090919050565b5f5f84546120ff81611f6c565b600182168015612116576001811461212b57612158565b60ff1983168652811515820286019350612158565b875f5260205f205f5b8381101561215057815488820152600190910190602001612134565b505081860193505b50505061216581856120db565b95945050505050565b6001600160a01b03858116825284166020820152604081018390526080606082018190525f90610ecf90830184611b6c565b5f602082840312156121b0575f5ffd5b815161126281611b08565b5f6115b86121c983866120db565b846120db56fea26469706673582212203d3ad036eadaebb2126c5d2a7c615bde5dc7119d06bd2d39007fdcc49b24205e64736f6c634300081e0033","linkReferences":{}},"methodIdentifiers":{"approve(address,uint256)":"095ea7b3","balanceOf(address)":"70a08231","certificates(uint256)":"663b3e22","chainGuardAddress()":"0a828e57","contractCertificates(address,uint256)":"ab068183","getApproved(uint256)":"081812fc","getCertificate(uint256)":"51640fee","getContractCertificates(address)":"2b06cf5d","getSeverityColor(uint8)":"128ebb4a","getSeverityLabel(uint8)":"a1794359","getValidCertificatesCount()":"40be1f81","isApprovedForAll(address,address)":"e985e9c5","mintCertificate(address,address,uint256,uint8,string,string)":"a436c201","name()":"06fdde03","owner()":"8da5cb5b","ownerOf(uint256)":"6352211e","renounceOwnership()":"715018a6","revokeCertificate(uint256,string)":"b1466d1d","safeTransferFrom(address,address,uint256)":"42842e0e","safeTransferFrom(address,address,uint256,bytes)":"b88d4fde","securityRegistry()":"9b21f9ae","setApprovalForAll(address,bool)":"a22cb465","setBaseTokenURI(string)":"30176e13","setChainGuardAddress(address)":"0229bffe","setSecurityRegistry(address)":"64fae8a9","supportsInterface(bytes4)":"01ffc9a7","symbol()":"95d89b41","tokenURI(uint256)":"c87b56dd","transferFrom(address,address,uint256)":"23b872dd","transferOwnership(address)":"f2fde38b","updateMetadata(uint256,string)":"53c8388e","validCertificates(uint256)":"c4cdfe1e"},"id":45}