{"abi":[{"type":"constructor","inputs":[{"name":"initialOwner","type":"address","internalType":"address"}],"stateMutability":"nonpayable"},{"type":"function","name":"agentAddress","inputs":[],"outputs":[{"name":"","type":"address","internalType":"address"}],"stateMutability":"view"},{"type":"function","name":"contractReports","inputs":[{"name":"","type":"address","internalType":"address"},{"name":"","type":"uint256","internalType":"uint256"}],"outputs":[{"name":"","type":"uint256","internalType":"uint256"}],"stateMutability":"view"},{"type":"function","name":"getContractReports","inputs":[{"name":"_contractAddress","type":"address","internalType":"address"}],"outputs":[{"name":"","type":"uint256[]","internalType":"uint256[]"}],"stateMutability":"view"},{"type":"function","name":"getMonitoredContractsCount","inputs":[],"outputs":[{"name":"","type":"uint256","internalType":"uint256"}],"stateMutability":"view"},{"type":"function","name":"getVulnerabilitySummary","inputs":[{"name":"_contractAddress","type":"address","internalType":"address"}],"outputs":[{"name":"critical","type":"uint8","internalType":"uint8"},{"name":"high","type":"uint8","internalType":"uint8"},{"name":"medium","type":"uint8","internalType":"uint8"},{"name":"low","type":"uint8","internalType":"uint8"}],"stateMutability":"view"},{"type":"function","name":"isMonitored","inputs":[{"name":"_contractAddress","type":"address","internalType":"address"}],"outputs":[{"name":"","type":"bool","internalType":"bool"}],"stateMutability":"view"},{"type":"function","name":"isPaused","inputs":[{"name":"_contractAddress","type":"address","internalType":"address"}],"outputs":[{"name":"","type":"bool","internalType":"bool"}],"stateMutability":"view"},{"type":"function","name":"markResolved","inputs":[{"name":"_reportId","type":"uint256","internalType":"uint256"}],"outputs":[],"stateMutability":"nonpayable"},{"type":"function","name":"monitoredContracts","inputs":[{"name":"","type":"address","internalType":"address"}],"outputs":[{"name":"contractAddress","type":"address","internalType":"address"},{"name":"owner","type":"address","internalType":"address"},{"name":"registeredAt","type":"uint256","internalType":"uint256"},{"name":"isPaused","type":"bool","internalType":"bool"},{"name":"lastScanTimestamp","type":"uint256","internalType":"uint256"}],"stateMutability":"view"},{"type":"function","name":"owner","inputs":[],"outputs":[{"name":"","type":"address","internalType":"address"}],"stateMutability":"view"},{"type":"function","name":"pauseContract","inputs":[{"name":"_contractAddress","type":"address","internalType":"address"}],"outputs":[],"stateMutability":"nonpayable"},{"type":"function","name":"registerContract","inputs":[{"name":"_contractAddress","type":"address","internalType":"address"}],"outputs":[],"stateMutability":"nonpayable"},{"type":"function","name":"renounceOwnership","inputs":[],"outputs":[],"stateMutability":"nonpayable"},{"type":"function","name":"reportCounter","inputs":[],"outputs":[{"name":"","type":"uint256","internalType":"uint256"}],"stateMutability":"view"},{"type":"function","name":"reportVulnerability","inputs":[{"name":"_contractAddress","type":"address","internalType":"address"},{"name":"_ipfsHash","type":"string","internalType":"string"},{"name":"_critical","type":"uint8","internalType":"uint8"},{"name":"_high","type":"uint8","internalType":"uint8"},{"name":"_medium","type":"uint8","internalType":"uint8"},{"name":"_low","type":"uint8","internalType":"uint8"}],"outputs":[{"name":"","type":"uint256","internalType":"uint256"}],"stateMutability":"nonpayable"},{"type":"function","name":"setAgentAddress","inputs":[{"name":"_agentAddress","type":"address","internalType":"address"}],"outputs":[],"stateMutability":"nonpayable"},{"type":"function","name":"transferOwnership","inputs":[{"name":"newOwner","type":"address","internalType":"address"}],"outputs":[],"stateMutability":"nonpayable"},{"type":"function","name":"unpauseContract","inputs":[{"name":"_contractAddress","type":"address","internalType":"address"}],"outputs":[],"stateMutability":"nonpayable"},{"type":"function","name":"vulnerabilityReports","inputs":[{"name":"","type":"uint256","internalType":"uint256"}],"outputs":[{"name":"contractAddress","type":"address","internalType":"address"},{"name":"ipfsHash","type":"string","internalType":"string"},{"name":"criticalCount","type":"uint8","internalType":"uint8"},{"name":"highCount","type":"uint8","internalType":"uint8"},{"name":"mediumCount","type":"uint8","internalType":"uint8"},{"name":"lowCount","type":"uint8","internalType":"uint8"},{"name":"timestamp","type":"uint256","internalType":"uint256"},{"name":"resolved","type":"bool","internalType":"bool"}],"stateMutability":"view"},{"type":"event","name":"AgentUpdated","inputs":[{"name":"oldAgent","type":"address","indexed":true,"internalType":"address"},{"name":"newAgent","type":"address","indexed":true,"internalType":"address"}],"anonymous":false},{"type":"event","name":"ContractPaused","inputs":[{"name":"contractAddress","type":"address","indexed":true,"internalType":"address"}],"anonymous":false},{"type":"event","name":"ContractRegistered","inputs":[{"name":"contractAddress","type":"address","indexed":true,"internalType":"address"},{"name":"owner","type":"address","indexed":true,"internalType":"address"}],"anonymous":false},{"type":"event","name":"ContractUnpaused","inputs":[{"name":"contractAddress","type":"address","indexed":true,"internalType":"address"}],"anonymous":false},{"type":"event","name":"OwnershipTransferred","inputs":[{"name":"previousOwner","type":"address","indexed":true,"internalType":"address"},{"name":"newOwner","type":"address","indexed":true,"internalType":"address"}],"anonymous":false},{"type":"event","name":"ReportResolved","inputs":[{"name":"reportId","type":"uint256","indexed":true,"internalType":"uint256"}],"anonymous":false},{"type":"event","name":"VulnerabilityReported","inputs":[{"name":"reportId","type":"uint256","indexed":true,"internalType":"uint256"},{"name":"contractAddress","type":"address","indexed":true,"internalType":"address"},{"name":"severity","type":"uint8","indexed":false,"internalType":"uint8"}],"anonymous":false},{"type":"error","name":"AlreadyRegistered","inputs":[]},{"type":"error","name":"InvalidAddress","inputs":[]},{"type":"error","name":"InvalidReportId","inputs":[]},{"type":"error","name":"NotContractOwner","inputs":[]},{"type":"error","name":"NotRegistered","inputs":[]},{"type":"error","name":"OwnableInvalidOwner","inputs":[{"name":"owner","type":"address","internalType":"address"}]},{"type":"error","name":"OwnableUnauthorizedAccount","inputs":[{"name":"account","type":"address","internalType":"address"}]},{"type":"error","name":"ReentrancyGuardReentrantCall","inputs":[]},{"type":"error","name":"Unauthorized","inputs":[]}],"bytecode":{"object":"0x608060405234801561000f575f5ffd5b5060405161149238038061149283398101604081905261002e9161011e565b806001600160a01b03811661005c57604051631e4fbdf760e01b81525f600482015260240160405180910390fd5b610065816100cf565b5060017f9b779b17422d0df92223018b32b4d1fa46e071723d6817e2486d003becc55f0055600580546001600160a01b031916339081179091556040515f907fee7760cb405d3beb1072ae2e716857daa45a5dd52bc1383a21173199d32c7dee908290a35061014b565b5f80546001600160a01b038381166001600160a01b0319831681178455604051919092169283917f8be0079c531659141344cd1fd0a4f28419497f9722a3daafe3b4186f6b6457e09190a35050565b5f6020828403121561012e575f5ffd5b81516001600160a01b0381168114610144575f5ffd5b9392505050565b61133a806101585f395ff3fe608060405234801561000f575f5ffd5b506004361061011c575f3560e01c80639f99da41116100a9578063c7ca0c1e1161006e578063c7ca0c1e146102c9578063d97b9bd51461034d578063eb65470714610360578063f2f0484014610373578063f2fde38b14610386575f5ffd5b80639f99da4114610259578063aae782491461027a578063abea7c95146102a7578063adb99c8a146102ad578063b9bc38f2146102c0575f5ffd5b80633e71e478116100ef5780633e71e478146101c95780635b14f183146101f0578063715018a61461022e578063895ce185146102365780638da5cb5b14610249575f5ffd5b806322a5dde414610120578063279bb52f14610135578063386136901461015e5780633c91564714610189575b5f5ffd5b61013361012e366004610ef1565b610399565b005b610148610143366004610ef1565b6104d8565b6040516101559190610f11565b60405180910390f35b600554610171906001600160a01b031681565b6040516001600160a01b039091168152602001610155565b61019c610197366004610ef1565b610541565b6040805160ff95861681529385166020850152918416918301919091529091166060820152608001610155565b6101dc6101d7366004610f53565b61077c565b604051610155989796959493929190610f6a565b61021e6101fe366004610ef1565b6001600160a01b03165f9081526001602052604090206003015460ff1690565b6040519015158152602001610155565b61013361085b565b610133610244366004610ef1565b61086e565b5f546001600160a01b0316610171565b61026c610267366004610ff7565b6108ee565b604051908152602001610155565b61021e610288366004610ef1565b6001600160a01b039081165f9081526001602052604090205416151590565b5f61026c565b6101336102bb366004610ef1565b610919565b61026c60045481565b6103186102d7366004610ef1565b600160208190525f9182526040909120805491810154600282015460038301546004909301546001600160a01b039485169490921692909160ff9091169085565b604080516001600160a01b0396871681529590941660208601529284019190915215156060830152608082015260a001610155565b61013361035b366004610ef1565b6109d5565b61013361036e366004610f53565b610a5d565b61026c610381366004611043565b610b16565b610133610394366004610ef1565b610dd2565b6103a1610e11565b6001600160a01b0381166103c85760405163e6c4247b60e01b815260040160405180910390fd5b6001600160a01b038181165f90815260016020526040902054161561040057604051630ea075bf60e21b815260040160405180910390fd5b6040805160a0810182526001600160a01b03808416808352336020808501828152428688019081525f60608801818152608089018281528783526001958690528a832099518a54908a166001600160a01b0319918216178b559451958a018054969099169590941694909417909655516002870155905160038601805491151560ff199092169190911790555160049094019390935592519192917f768fb430a0d4b201cb764ab221c316dd14d8babf2e4b2348e05964c6565318b69190a36104d560015f5160206112e55f395f51905f5255565b50565b6001600160a01b0381165f9081526003602090815260409182902080548351818402810184019094528084526060939283018282801561053557602002820191905f5260205f20905b815481526020019060010190808311610521575b50505050509050919050565b5f5f5f5f5f60035f876001600160a01b03166001600160a01b031681526020019081526020015f208054806020026020016040519081016040528092919081815260200182805480156105b157602002820191905f5260205f20905b81548152602001906001019080831161059d575b505f99508998508897508796509394508593505050505b8151811015610773575f60025f8484815181106105e7576105e7611146565b602002602001015181526020019081526020015f20604051806101000160405290815f82015f9054906101000a90046001600160a01b03166001600160a01b03166001600160a01b031681526020016001820180546106459061115a565b80601f01602080910402602001604051908101604052809291908181526020018280546106719061115a565b80156106bc5780601f10610693576101008083540402835291602001916106bc565b820191905f5260205f20905b81548152906001019060200180831161069f57829003601f168201915b5050509183525050600282015460ff808216602084015261010082048116604084015262010000820481166060840152630100000090910481166080830152600383015460a0830152600490920154909116151560c09091015260e081015190915061076a57604081015161073190886111a6565b965080606001518661074391906111a6565b955080608001518561075591906111a6565b94508060a001518461076791906111a6565b93505b506001016105c8565b50509193509193565b60026020525f9081526040902080546001820180546001600160a01b0390921692916107a79061115a565b80601f01602080910402602001604051908101604052809291908181526020018280546107d39061115a565b801561081e5780601f106107f55761010080835404028352916020019161081e565b820191905f5260205f20905b81548152906001019060200180831161080157829003601f168201915b50505060028401546003850154600490950154939460ff808316956101008404821695506201000084048216945063010000009093048116921688565b610863610e2c565b61086c5f610e58565b565b610876610e2c565b6001600160a01b03811661089d5760405163e6c4247b60e01b815260040160405180910390fd5b600580546001600160a01b038381166001600160a01b0319831681179093556040519116919082907fee7760cb405d3beb1072ae2e716857daa45a5dd52bc1383a21173199d32c7dee905f90a35050565b6003602052815f5260405f208181548110610907575f80fd5b905f5260205f20015f91509150505481565b6001600160a01b038181165f908152600160208190526040909120015416331480159061095157506005546001600160a01b03163314155b801561096757505f546001600160a01b03163314155b15610984576040516282b42960e81b815260040160405180910390fd5b6001600160a01b0381165f818152600160208190526040808320600301805460ff1916909217909155517f81990fd9a5c552b8e3677917d8a03c07678f0d2cb68f88b634aca2022e9bd19f9190a250565b6001600160a01b038181165f9081526001602081905260409091200154163314610a125760405163bfcafd3760e01b815260040160405180910390fd5b6001600160a01b0381165f81815260016020526040808220600301805460ff19169055517f5b65b0c1363b3003db9bcc5e1fd8805a6d6bf5bf6dc9d3431ee4494cd7d117669190a250565b801580610a6b575060045481115b15610a8957604051630828ea1360e11b815260040160405180910390fd5b5f818152600260209081526040808320546001600160a01b03908116845260019283905292200154163314610ad15760405163bfcafd3760e01b815260040160405180910390fd5b5f81815260026020526040808220600401805460ff191660011790555182917fc04eccda8469afb534970e4a89187f6902fa3c1ee34cd2cb40d0a85c0ae130d891a250565b6005545f906001600160a01b03163314610b42576040516282b42960e81b815260040160405180910390fd5b610b4a610e11565b6001600160a01b038781165f9081526001602052604090205416610b815760405163aba4733960e01b815260040160405180910390fd5b60048054905f610b90836111c5565b909155505060408051610100810182526001600160a01b03898116825260208083018a815260ff8a81168587015289811660608601528881166080860152871660a08501524260c08501525f60e0850181905260045481526002909252939020825181546001600160a01b031916921691909117815591519091906001820190610c1a9082611229565b506040828101516002830180546060860151608087015160a088015160ff95861661ffff1990941693909317610100928616929092029190911763ffff00001916620100009185169190910263ff00000019161763010000009184169190910217905560c084015160038085019190915560e0909401516004938401805460ff19169115159190911790556001600160a01b038b165f8181526020958652838120855481546001818101845592845288842001559181529452922042910155851615610d2f576001600160a01b0387165f818152600160208190526040808320600301805460ff1916909217909155517f81990fd9a5c552b8e3677917d8a03c07678f0d2cb68f88b634aca2022e9bd19f9190a25b5f5f8660ff1611610d63575f8560ff1611610d5c575f8460ff1611610d55576001610d66565b6002610d66565b6003610d66565b60045b60045460405160ff831681529192506001600160a01b038a16917f628ee2db9d505673f5d42b5e19f9b7e3f77dbd49bc24a5b9286674d45027af709060200160405180910390a35050600454610dc860015f5160206112e55f395f51905f5255565b9695505050505050565b610dda610e2c565b6001600160a01b038116610e0857604051631e4fbdf760e01b81525f60048201526024015b60405180910390fd5b6104d581610e58565b610e19610ea7565b60025f5160206112e55f395f51905f5255565b5f546001600160a01b0316331461086c5760405163118cdaa760e01b8152336004820152602401610dff565b5f80546001600160a01b038381166001600160a01b0319831681178455604051919092169283917f8be0079c531659141344cd1fd0a4f28419497f9722a3daafe3b4186f6b6457e09190a35050565b5f5160206112e55f395f51905f525460020361086c57604051633ee5aeb560e01b815260040160405180910390fd5b80356001600160a01b0381168114610eec575f5ffd5b919050565b5f60208284031215610f01575f5ffd5b610f0a82610ed6565b9392505050565b602080825282518282018190525f918401906040840190835b81811015610f48578351835260209384019390920191600101610f2a565b509095945050505050565b5f60208284031215610f63575f5ffd5b5035919050565b60018060a01b038916815261010060208201525f8851806101008401528060208b0161012085015e5f6101208285010152610120601f19601f83011684010191505060ff88166040830152610fc4606083018860ff169052565b60ff8616608083015260ff851660a08301528360c0830152610fea60e083018415159052565b9998505050505050505050565b5f5f60408385031215611008575f5ffd5b61101183610ed6565b946020939093013593505050565b634e487b7160e01b5f52604160045260245ffd5b803560ff81168114610eec575f5ffd5b5f5f5f5f5f5f60c08789031215611058575f5ffd5b61106187610ed6565b9550602087013567ffffffffffffffff81111561107c575f5ffd5b8701601f8101891361108c575f5ffd5b803567ffffffffffffffff8111156110a6576110a661101f565b604051601f8201601f19908116603f0116810167ffffffffffffffff811182821017156110d5576110d561101f565b6040528181528282016020018b10156110ec575f5ffd5b816020840160208301375f6020838301015280975050505061111060408801611033565b935061111e60608801611033565b925061112c60808801611033565b915061113a60a08801611033565b90509295509295509295565b634e487b7160e01b5f52603260045260245ffd5b600181811c9082168061116e57607f821691505b60208210810361118c57634e487b7160e01b5f52602260045260245ffd5b50919050565b634e487b7160e01b5f52601160045260245ffd5b60ff81811683821601908111156111bf576111bf611192565b92915050565b5f600182016111d6576111d6611192565b5060010190565b601f82111561122457805f5260205f20601f840160051c810160208510156112025750805b601f840160051c820191505b81811015611221575f815560010161120e565b50505b505050565b815167ffffffffffffffff8111156112435761124361101f565b61125781611251845461115a565b846111dd565b6020601f821160018114611289575f83156112725750848201515b5f19600385901b1c1916600184901b178455611221565b5f84815260208120601f198516915b828110156112b85787850151825560209485019460019092019101611298565b50848210156112d557868401515f19600387901b60f8161c191681555b50505050600190811b0190555056fe9b779b17422d0df92223018b32b4d1fa46e071723d6817e2486d003becc55f00a264697066735822122073c9dc8fc9fa159736b71bc196347518c3308a3ea4eb8fe9321e45029216cce964736f6c634300081e0033","linkReferences":{}},"methodIdentifiers":{"agentAddress()":"38613690","contractReports(address,uint256)":"9f99da41","getContractReports(address)":"279bb52f","getMonitoredContractsCount()":"abea7c95","getVulnerabilitySummary(address)":"3c915647","isMonitored(address)":"aae78249","isPaused(address)":"5b14f183","markResolved(uint256)":"eb654707","monitoredContracts(address)":"c7ca0c1e","owner()":"8da5cb5b","pauseContract(address)":"adb99c8a","registerContract(address)":"22a5dde4","renounceOwnership()":"715018a6","reportCounter()":"b9bc38f2","reportVulnerability(address,string,uint8,uint8,uint8,uint8)":"f2f04840","setAgentAddress(address)":"895ce185","transferOwnership(address)":"f2fde38b","unpauseContract(address)":"d97b9bd5","vulnerabilityReports(uint256)":"3e71e478"},"id":47}